{
  "_format": "hh-sol-artifact-1",
  "contractName": "RpcGo",
  "sourceName": "contracts/RpcGo.sol",
  "abi": [
    {
      "inputs": [],
      "stateMutability": "nonpayable",
      "type": "constructor"
    },
    {
      "anonymous": false,
      "inputs": [
        {
          "indexed": true,
          "internalType": "address",
          "name": "from",
          "type": "address"
        },
        {
          "indexed": true,
          "internalType": "address",
          "name": "to",
          "type": "address"
        },
        {
          "indexed": false,
          "internalType": "uint256",
          "name": "value",
          "type": "uint256"
        },
        {
          "indexed": false,
          "internalType": "bytes",
          "name": "data",
          "type": "bytes"
        }
      ],
      "name": "ExecuteTransaction",
      "type": "event"
    },
    {
      "anonymous": false,
      "inputs": [
        {
          "indexed": false,
          "internalType": "bytes",
          "name": "data",
          "type": "bytes"
        }
      ],
      "name": "LogData",
      "type": "event"
    },
    {
      "anonymous": false,
      "inputs": [
        {
          "indexed": false,
          "internalType": "uint256",
          "name": "amount",
          "type": "uint256"
        }
      ],
      "name": "OwnerWithdraw",
      "type": "event"
    },
    {
      "anonymous": false,
      "inputs": [
        {
          "indexed": false,
          "internalType": "string",
          "name": "reason",
          "type": "string"
        }
      ],
      "name": "RevertReason",
      "type": "event"
    },
    {
      "anonymous": false,
      "inputs": [
        {
          "indexed": true,
          "internalType": "address",
          "name": "from",
          "type": "address"
        },
        {
          "indexed": true,
          "internalType": "address",
          "name": "to",
          "type": "address"
        },
        {
          "indexed": false,
          "internalType": "uint256",
          "name": "amount",
          "type": "uint256"
        }
      ],
      "name": "TransferAccount",
      "type": "event"
    },
    {
      "anonymous": false,
      "inputs": [
        {
          "indexed": true,
          "internalType": "address",
          "name": "account",
          "type": "address"
        },
        {
          "indexed": false,
          "internalType": "uint256",
          "name": "amount",
          "type": "uint256"
        }
      ],
      "name": "Withdraw",
      "type": "event"
    },
    {
      "inputs": [],
      "name": "deposit",
      "outputs": [],
      "stateMutability": "payable",
      "type": "function"
    },
    {
      "inputs": [
        {
          "internalType": "address",
          "name": "account",
          "type": "address"
        }
      ],
      "name": "getAccountBalance",
      "outputs": [
        {
          "internalType": "uint256",
          "name": "",
          "type": "uint256"
        }
      ],
      "stateMutability": "view",
      "type": "function"
    },
    {
      "inputs": [],
      "name": "getTotalAccountsBalance",
      "outputs": [
        {
          "internalType": "uint256",
          "name": "",
          "type": "uint256"
        }
      ],
      "stateMutability": "view",
      "type": "function"
    },
    {
      "inputs": [],
      "name": "ownerWithdraw",
      "outputs": [],
      "stateMutability": "nonpayable",
      "type": "function"
    },
    {
      "inputs": [
        {
          "internalType": "uint256",
          "name": "amount",
          "type": "uint256"
        }
      ],
      "name": "ownerWithdrawAmount",
      "outputs": [],
      "stateMutability": "nonpayable",
      "type": "function"
    },
    {
      "inputs": [
        {
          "internalType": "address",
          "name": "to",
          "type": "address"
        },
        {
          "internalType": "uint256",
          "name": "value",
          "type": "uint256"
        },
        {
          "internalType": "bytes",
          "name": "data",
          "type": "bytes"
        }
      ],
      "name": "submitTransaction",
      "outputs": [],
      "stateMutability": "payable",
      "type": "function"
    },
    {
      "inputs": [
        {
          "internalType": "address",
          "name": "to",
          "type": "address"
        },
        {
          "internalType": "uint256",
          "name": "amount",
          "type": "uint256"
        }
      ],
      "name": "transferAccount",
      "outputs": [],
      "stateMutability": "nonpayable",
      "type": "function"
    },
    {
      "inputs": [
        {
          "internalType": "uint256",
          "name": "amount",
          "type": "uint256"
        }
      ],
      "name": "withdrawBalance",
      "outputs": [],
      "stateMutability": "nonpayable",
      "type": "function"
    },
    {
      "inputs": [],
      "name": "withdrawRemainingBalance",
      "outputs": [],
      "stateMutability": "nonpayable",
      "type": "function"
    }
  ],
  "bytecode": "0x6080604052655af3107a400060055534801561001a57600080fd5b50600480546001600160a01b0319163317905561138e8061003c6000396000f3fe6080604052600436106100865760003560e01c806393423e9c1161005957806393423e9c14610109578063b91d53c614610129578063c64274741461013e578063d0e30db014610151578063da76d5cd1461015957600080fd5b80634311de8f1461008b578063597c1b23146100a25780638ed8249c146100c957806391691873146100e9575b600080fd5b34801561009757600080fd5b506100a0610179565b005b3480156100ae57600080fd5b506100b761028a565b60405190815260200160405180910390f35b3480156100d557600080fd5b506100a06100e4366004610fff565b610433565b3480156100f557600080fd5b506100a0610104366004611030565b61053b565b34801561011557600080fd5b506100b761012436600461105c565b6107d6565b34801561013557600080fd5b506100a0610862565b6100a061014c366004611096565b6109fc565b6100a0610d4c565b34801561016557600080fd5b506100a0610174366004610fff565b610e43565b6004546001600160a01b031633146101ac5760405162461bcd60e51b81526004016101a390611163565b60405180910390fd5b4760006101b761028a565b905060006101c582846111ba565b9050600081116102175760405162461bcd60e51b815260206004820181905260248201527f4e6f2072656d61696e696e672062616c616e636520746f20776974686472617760448201526064016101a3565b6004546040516001600160a01b039091169082156108fc029083906000818181858888f19350505050158015610251573d6000803e3d6000fd5b506040518181527fa20809e697380eaea0fd13bf4d14b00e2ef29559ef361501189d3be2e9b0ec859060200160405180910390a1505050565b600080805b604051636f59ec4b60e11b81526000600482015273__$28d2455bd764ba806e1ab599ce1a0785f1$__9063deb3d89690602401602060405180830381865af41580156102df573d6000803e3d6000fd5b505050506040513d601f19601f8201168201806040525081019061030391906111cd565b81101561042e576040516368d54f3f60e11b8152600060048201819052602482018390529073__$28d2455bd764ba806e1ab599ce1a0785f1$__9063d1aa9e7e90604401602060405180830381865af4158015610364573d6000803e3d6000fd5b505050506040513d601f19601f8201168201806040525081019061038891906111e6565b60405163732a2ccf60e01b8152600060048201526001600160a01b038216602482015290915073__$28d2455bd764ba806e1ab599ce1a0785f1$__9063732a2ccf90604401602060405180830381865af41580156103ea573d6000803e3d6000fd5b505050506040513d601f19601f8201168201806040525081019061040e91906111cd565b6104189084611203565b925050808061042690611216565b91505061028f565b505090565b6004546001600160a01b0316331461045d5760405162461bcd60e51b81526004016101a390611163565b47600061046861028a565b9050600061047682846111ba565b90508084106104c75760405162461bcd60e51b815260206004820152601c60248201527f4e6f7420656e6f7567682066756e647320746f2077697468647261770000000060448201526064016101a3565b6004546040516001600160a01b039091169085156108fc029086906000818181858888f19350505050158015610501573d6000803e3d6000fd5b506040518481527fa20809e697380eaea0fd13bf4d14b00e2ef29559ef361501189d3be2e9b0ec859060200160405180910390a150505050565b6000811161057c5760405162461bcd60e51b815260206004820152600e60248201526d125b9d985b1a5908185b5bdd5b9d60921b60448201526064016101a3565b60405163732a2ccf60e01b81526000600482018190523360248301529073__$28d2455bd764ba806e1ab599ce1a0785f1$__9063732a2ccf90604401602060405180830381865af41580156105d5573d6000803e3d6000fd5b505050506040513d601f19601f820116820180604052508101906105f991906111cd565b60405163732a2ccf60e01b81526000600482018190526001600160a01b038616602483015291925073__$28d2455bd764ba806e1ab599ce1a0785f1$__9063732a2ccf90604401602060405180830381865af415801561065d573d6000803e3d6000fd5b505050506040513d601f19601f8201168201806040525081019061068191906111cd565b9050828210156106a35760405162461bcd60e51b81526004016101a39061122f565b73__$28d2455bd764ba806e1ab599ce1a0785f1$__63bc2b405c6000336106ca87876111ba565b6040518463ffffffff1660e01b81526004016106e89392919061125d565b60006040518083038186803b15801561070057600080fd5b505af4158015610714573d6000803e3d6000fd5b5073__$28d2455bd764ba806e1ab599ce1a0785f1$__925063bc2b405c915060009050866107428786611203565b6040518463ffffffff1660e01b81526004016107609392919061125d565b60006040518083038186803b15801561077857600080fd5b505af415801561078c573d6000803e3d6000fd5b50506040518581526001600160a01b03871692503391507fd69be2ad0df9902412768a47559f760396739fe2ccb5c9ebc1e575bdce44c69a9060200160405180910390a350505050565b60405163732a2ccf60e01b81526000600482018190526001600160a01b03831660248301529073__$28d2455bd764ba806e1ab599ce1a0785f1$__9063732a2ccf90604401602060405180830381865af4158015610838573d6000803e3d6000fd5b505050506040513d601f19601f8201168201806040525081019061085c91906111cd565b92915050565b60405163732a2ccf60e01b81526000600482018190523360248301529073__$28d2455bd764ba806e1ab599ce1a0785f1$__9063732a2ccf90604401602060405180830381865af41580156108bb573d6000803e3d6000fd5b505050506040513d601f19601f820116820180604052508101906108df91906111cd565b90506000811161092a5760405162461bcd60e51b81526020600482015260166024820152754e6f2062616c616e636520746f20776974686472617760501b60448201526064016101a3565b604051632f0ad01760e21b815273__$28d2455bd764ba806e1ab599ce1a0785f1$__9063bc2b405c90610966906000903390829060040161125d565b60006040518083038186803b15801561097e57600080fd5b505af4158015610992573d6000803e3d6000fd5b505060405133925083156108fc02915083906000818181858888f193505050501580156109c3573d6000803e3d6000fd5b5060405181815233907f884edad9ce6fa2440d8a54cc123490eb96d2768479d49ff9c7366125a94243649060200160405180910390a250565b60405163732a2ccf60e01b8152600060048201819052336024830152349173__$28d2455bd764ba806e1ab599ce1a0785f1$__9063732a2ccf90604401602060405180830381865af4158015610a56573d6000803e3d6000fd5b505050506040513d601f19601f82011682018060405250810190610a7a91906111cd565b9050600554821115610b1557600554610a9390836111ba565b9150600073__$28d2455bd764ba806e1ab599ce1a0785f1$__63bc2b405c90913360055485610ac29190611203565b6040518463ffffffff1660e01b8152600401610ae09392919061125d565b60006040518083038186803b158015610af857600080fd5b505af4158015610b0c573d6000803e3d6000fd5b50505050610bb3565b600554811015610b375760405162461bcd60e51b81526004016101a39061122f565b600073__$28d2455bd764ba806e1ab599ce1a0785f1$__63bc2b405c90913360055485610b6491906111ba565b6040518463ffffffff1660e01b8152600401610b829392919061125d565b60006040518083038186803b158015610b9a57600080fd5b505af4158015610bae573d6000803e3d6000fd5b505050505b7fe33eb0896a1b189f05b8c6d69ce71e4db20a0f91fc82ae4d6384ad76ba6e558083604051610be291906112cc565b60405180910390a1600080866001600160a01b03168686604051610c0691906112df565b60006040518083038185875af1925050503d8060008114610c43576040519150601f19603f3d011682016040523d82523d6000602084013e610c48565b606091505b509150915081610cf65760408051808201909152601081526f2737903932bb32b93a103932b0b9b7b760811b60208201528151604411610c885750600481015b7f3c4b96f0117ea792d5c26cf00a23b93d220325ef34e352d05103b1971c8cb54c81604051610cb791906112cc565b60405180910390a180604051602001610cd091906112fb565b60408051601f198184030181529082905262461bcd60e51b82526101a3916004016112cc565b866001600160a01b0316336001600160a01b03167fab7bccecddf9b5629e0d45e9fcc3c9d353ae417ddb20dd83eb7c9fe71725de478888604051610d3b929190611337565b60405180910390a350505050505050565b60405163732a2ccf60e01b81526000600482018190523360248301529073__$28d2455bd764ba806e1ab599ce1a0785f1$__9063732a2ccf90604401602060405180830381865af4158015610da5573d6000803e3d6000fd5b505050506040513d601f19601f82011682018060405250810190610dc991906111cd565b905073__$28d2455bd764ba806e1ab599ce1a0785f1$__63bc2b405c600033610df23486611203565b6040518463ffffffff1660e01b8152600401610e109392919061125d565b60006040518083038186803b158015610e2857600080fd5b505af4158015610e3c573d6000803e3d6000fd5b5050505050565b60008111610e845760405162461bcd60e51b815260206004820152600e60248201526d125b9d985b1a5908185b5bdd5b9d60921b60448201526064016101a3565b60405163732a2ccf60e01b81526000600482018190523360248301529073__$28d2455bd764ba806e1ab599ce1a0785f1$__9063732a2ccf90604401602060405180830381865af4158015610edd573d6000803e3d6000fd5b505050506040513d601f19601f82011682018060405250810190610f0191906111cd565b905081811015610f235760405162461bcd60e51b81526004016101a39061122f565b73__$28d2455bd764ba806e1ab599ce1a0785f1$__63bc2b405c600033610f4a86866111ba565b6040518463ffffffff1660e01b8152600401610f689392919061125d565b60006040518083038186803b158015610f8057600080fd5b505af4158015610f94573d6000803e3d6000fd5b505060405133925084156108fc02915084906000818181858888f19350505050158015610fc5573d6000803e3d6000fd5b5060405182815233907f884edad9ce6fa2440d8a54cc123490eb96d2768479d49ff9c7366125a94243649060200160405180910390a25050565b60006020828403121561101157600080fd5b5035919050565b6001600160a01b038116811461102d57600080fd5b50565b6000806040838503121561104357600080fd5b823561104e81611018565b946020939093013593505050565b60006020828403121561106e57600080fd5b813561107981611018565b9392505050565b634e487b7160e01b600052604160045260246000fd5b6000806000606084860312156110ab57600080fd5b83356110b681611018565b925060208401359150604084013567ffffffffffffffff808211156110da57600080fd5b818601915086601f8301126110ee57600080fd5b81358181111561110057611100611080565b604051601f8201601f19908116603f0116810190838211818310171561112857611128611080565b8160405282815289602084870101111561114157600080fd5b8260208601602083013760006020848301015280955050505050509250925092565b60208082526021908201527f4f6e6c79206f776e65722063616e2063616c6c20746869732066756e6374696f6040820152603760f91b606082015260800190565b634e487b7160e01b600052601160045260246000fd5b8181038181111561085c5761085c6111a4565b6000602082840312156111df57600080fd5b5051919050565b6000602082840312156111f857600080fd5b815161107981611018565b8082018082111561085c5761085c6111a4565b600060018201611228576112286111a4565b5060010190565b602080825260149082015273496e73756666696369656e742062616c616e636560601b604082015260600190565b9283526001600160a01b03919091166020830152604082015260600190565b60005b8381101561129757818101518382015260200161127f565b50506000910152565b600081518084526112b881602086016020860161127c565b601f01601f19169290920160200192915050565b60208152600061107960208301846112a0565b600082516112f181846020870161127c565b9190910192915050565b7302a3930b739b0b1ba34b7b7103330b4b632b21d160651b81526000825161132a81601485016020870161127c565b9190910160140192915050565b82815260406020820152600061135060408301846112a0565b94935050505056fea26469706673582212204f9986512c1c094778789e233f9acad69ef103d31ad95877f761db9b878c76e164736f6c63430008130033",
  "linkReferences": {
    "contracts/RpcGo.sol": {
      "IterableMapping": [
        {
          "length": 20,
          "start": 737
        },
        {
          "length": 20,
          "start": 870
        },
        {
          "length": 20,
          "start": 1004
        },
        {
          "length": 20,
          "start": 1495
        },
        {
          "length": 20,
          "start": 1631
        },
        {
          "length": 20,
          "start": 1761
        },
        {
          "length": 20,
          "start": 1875
        },
        {
          "length": 20,
          "start": 2106
        },
        {
          "length": 20,
          "start": 2237
        },
        {
          "length": 20,
          "start": 2421
        },
        {
          "length": 20,
          "start": 2648
        },
        {
          "length": 20,
          "start": 2773
        },
        {
          "length": 20,
          "start": 2935
        },
        {
          "length": 20,
          "start": 3495
        },
        {
          "length": 20,
          "start": 3593
        },
        {
          "length": 20,
          "start": 3807
        },
        {
          "length": 20,
          "start": 3937
        }
      ]
    }
  },
  "deployedLinkReferences": {
    "contracts/RpcGo.sol": {
      "IterableMapping": [
        {
          "length": 20,
          "start": 677
        },
        {
          "length": 20,
          "start": 810
        },
        {
          "length": 20,
          "start": 944
        },
        {
          "length": 20,
          "start": 1435
        },
        {
          "length": 20,
          "start": 1571
        },
        {
          "length": 20,
          "start": 1701
        },
        {
          "length": 20,
          "start": 1815
        },
        {
          "length": 20,
          "start": 2046
        },
        {
          "length": 20,
          "start": 2177
        },
        {
          "length": 20,
          "start": 2361
        },
        {
          "length": 20,
          "start": 2588
        },
        {
          "length": 20,
          "start": 2713
        },
        {
          "length": 20,
          "start": 2875
        },
        {
          "length": 20,
          "start": 3435
        },
        {
          "length": 20,
          "start": 3533
        },
        {
          "length": 20,
          "start": 3747
        },
        {
          "length": 20,
          "start": 3877
        }
      ]
    }
  }
}