{
  "_format": "hh-sol-artifact-1",
  "contractName": "RpcGo",
  "sourceName": "contracts/RpcGo.sol",
  "abi": [
    {
      "inputs": [],
      "stateMutability": "nonpayable",
      "type": "constructor"
    },
    {
      "anonymous": false,
      "inputs": [
        {
          "indexed": true,
          "internalType": "address",
          "name": "from",
          "type": "address"
        },
        {
          "indexed": true,
          "internalType": "address",
          "name": "to",
          "type": "address"
        },
        {
          "indexed": false,
          "internalType": "uint256",
          "name": "value",
          "type": "uint256"
        },
        {
          "indexed": false,
          "internalType": "bytes",
          "name": "data",
          "type": "bytes"
        }
      ],
      "name": "ExecuteTransaction",
      "type": "event"
    },
    {
      "anonymous": false,
      "inputs": [
        {
          "indexed": false,
          "internalType": "bytes",
          "name": "data",
          "type": "bytes"
        }
      ],
      "name": "LogData",
      "type": "event"
    },
    {
      "anonymous": false,
      "inputs": [
        {
          "indexed": false,
          "internalType": "uint256",
          "name": "amount",
          "type": "uint256"
        }
      ],
      "name": "OwnerWithdraw",
      "type": "event"
    },
    {
      "anonymous": false,
      "inputs": [
        {
          "indexed": false,
          "internalType": "string",
          "name": "reason",
          "type": "string"
        }
      ],
      "name": "RevertReason",
      "type": "event"
    },
    {
      "anonymous": false,
      "inputs": [
        {
          "indexed": true,
          "internalType": "address",
          "name": "from",
          "type": "address"
        },
        {
          "indexed": true,
          "internalType": "address",
          "name": "to",
          "type": "address"
        },
        {
          "indexed": false,
          "internalType": "uint256",
          "name": "amount",
          "type": "uint256"
        }
      ],
      "name": "TransferAccount",
      "type": "event"
    },
    {
      "anonymous": false,
      "inputs": [
        {
          "indexed": true,
          "internalType": "address",
          "name": "account",
          "type": "address"
        },
        {
          "indexed": false,
          "internalType": "uint256",
          "name": "amount",
          "type": "uint256"
        }
      ],
      "name": "Withdraw",
      "type": "event"
    },
    {
      "inputs": [],
      "name": "deposit",
      "outputs": [],
      "stateMutability": "payable",
      "type": "function"
    },
    {
      "inputs": [],
      "name": "ownerWithdraw",
      "outputs": [],
      "stateMutability": "nonpayable",
      "type": "function"
    },
    {
      "inputs": [
        {
          "internalType": "uint256",
          "name": "amount",
          "type": "uint256"
        }
      ],
      "name": "ownerWithdrawAmount",
      "outputs": [],
      "stateMutability": "nonpayable",
      "type": "function"
    },
    {
      "inputs": [
        {
          "internalType": "address",
          "name": "to",
          "type": "address"
        },
        {
          "internalType": "uint256",
          "name": "value",
          "type": "uint256"
        },
        {
          "internalType": "bytes",
          "name": "data",
          "type": "bytes"
        }
      ],
      "name": "submitTransaction",
      "outputs": [],
      "stateMutability": "payable",
      "type": "function"
    },
    {
      "inputs": [
        {
          "internalType": "address",
          "name": "to",
          "type": "address"
        },
        {
          "internalType": "uint256",
          "name": "amount",
          "type": "uint256"
        }
      ],
      "name": "transferAccount",
      "outputs": [],
      "stateMutability": "nonpayable",
      "type": "function"
    },
    {
      "inputs": [
        {
          "internalType": "uint256",
          "name": "amount",
          "type": "uint256"
        }
      ],
      "name": "withdrawBalance",
      "outputs": [],
      "stateMutability": "nonpayable",
      "type": "function"
    },
    {
      "inputs": [],
      "name": "withdrawRemainingBalance",
      "outputs": [],
      "stateMutability": "nonpayable",
      "type": "function"
    }
  ],
  "bytecode": "0x6080604052655af3107a400060055534801561001a57600080fd5b50600480546001600160a01b031916331790556112068061003c6000396000f3fe6080604052600436106100705760003560e01c8063b91d53c61161004e578063b91d53c6146100cc578063c6427474146100e1578063d0e30db0146100f4578063da76d5cd146100fc57600080fd5b80634311de8f146100755780638ed8249c1461008c57806391691873146100ac575b600080fd5b34801561008157600080fd5b5061008a61011c565b005b34801561009857600080fd5b5061008a6100a7366004610e8e565b61022d565b3480156100b857600080fd5b5061008a6100c7366004610ebf565b610335565b3480156100d857600080fd5b5061008a610547565b61008a6100ef366004610f01565b6106e1565b61008a610a31565b34801561010857600080fd5b5061008a610117366004610e8e565b610b28565b6004546001600160a01b0316331461014f5760405162461bcd60e51b815260040161014690610fce565b60405180910390fd5b47600061015a610ce4565b905060006101688284611025565b9050600081116101ba5760405162461bcd60e51b815260206004820181905260248201527f4e6f2072656d61696e696e672062616c616e636520746f2077697468647261776044820152606401610146565b6004546040516001600160a01b039091169082156108fc029083906000818181858888f193505050501580156101f4573d6000803e3d6000fd5b506040518181527fa20809e697380eaea0fd13bf4d14b00e2ef29559ef361501189d3be2e9b0ec859060200160405180910390a1505050565b6004546001600160a01b031633146102575760405162461bcd60e51b815260040161014690610fce565b476000610262610ce4565b905060006102708284611025565b90508084106102c15760405162461bcd60e51b815260206004820152601c60248201527f4e6f7420656e6f7567682066756e647320746f207769746864726177000000006044820152606401610146565b6004546040516001600160a01b039091169085156108fc029086906000818181858888f193505050501580156102fb573d6000803e3d6000fd5b506040518481527fa20809e697380eaea0fd13bf4d14b00e2ef29559ef361501189d3be2e9b0ec859060200160405180910390a150505050565b600081116103765760405162461bcd60e51b815260206004820152600e60248201526d125b9d985b1a5908185b5bdd5b9d60921b6044820152606401610146565b60405163732a2ccf60e01b81526000600482018190523360248301529073__$28d2455bd764ba806e1ab599ce1a0785f1$__9063732a2ccf90604401602060405180830381865af41580156103cf573d6000803e3d6000fd5b505050506040513d601f19601f820116820180604052508101906103f3919061103e565b9050818110156104155760405162461bcd60e51b815260040161014690611057565b73__$28d2455bd764ba806e1ab599ce1a0785f1$__63bc2b405c60003361043c8686611025565b6040518463ffffffff1660e01b815260040161045a93929190611085565b60006040518083038186803b15801561047257600080fd5b505af4158015610486573d6000803e3d6000fd5b5073__$28d2455bd764ba806e1ab599ce1a0785f1$__925063bc2b405c915060009050856104b486866110a4565b6040518463ffffffff1660e01b81526004016104d293929190611085565b60006040518083038186803b1580156104ea57600080fd5b505af41580156104fe573d6000803e3d6000fd5b50506040518481526001600160a01b03861692503391507fd69be2ad0df9902412768a47559f760396739fe2ccb5c9ebc1e575bdce44c69a9060200160405180910390a3505050565b60405163732a2ccf60e01b81526000600482018190523360248301529073__$28d2455bd764ba806e1ab599ce1a0785f1$__9063732a2ccf90604401602060405180830381865af41580156105a0573d6000803e3d6000fd5b505050506040513d601f19601f820116820180604052508101906105c4919061103e565b90506000811161060f5760405162461bcd60e51b81526020600482015260166024820152754e6f2062616c616e636520746f20776974686472617760501b6044820152606401610146565b604051632f0ad01760e21b815273__$28d2455bd764ba806e1ab599ce1a0785f1$__9063bc2b405c9061064b9060009033908290600401611085565b60006040518083038186803b15801561066357600080fd5b505af4158015610677573d6000803e3d6000fd5b505060405133925083156108fc02915083906000818181858888f193505050501580156106a8573d6000803e3d6000fd5b5060405181815233907f884edad9ce6fa2440d8a54cc123490eb96d2768479d49ff9c7366125a94243649060200160405180910390a250565b60405163732a2ccf60e01b8152600060048201819052336024830152349173__$28d2455bd764ba806e1ab599ce1a0785f1$__9063732a2ccf90604401602060405180830381865af415801561073b573d6000803e3d6000fd5b505050506040513d601f19601f8201168201806040525081019061075f919061103e565b90506005548211156107fa576005546107789083611025565b9150600073__$28d2455bd764ba806e1ab599ce1a0785f1$__63bc2b405c909133600554856107a791906110a4565b6040518463ffffffff1660e01b81526004016107c593929190611085565b60006040518083038186803b1580156107dd57600080fd5b505af41580156107f1573d6000803e3d6000fd5b50505050610898565b60055481101561081c5760405162461bcd60e51b815260040161014690611057565b600073__$28d2455bd764ba806e1ab599ce1a0785f1$__63bc2b405c909133600554856108499190611025565b6040518463ffffffff1660e01b815260040161086793929190611085565b60006040518083038186803b15801561087f57600080fd5b505af4158015610893573d6000803e3d6000fd5b505050505b7fe33eb0896a1b189f05b8c6d69ce71e4db20a0f91fc82ae4d6384ad76ba6e5580836040516108c79190611107565b60405180910390a1600080866001600160a01b031686866040516108eb9190611121565b60006040518083038185875af1925050503d8060008114610928576040519150601f19603f3d011682016040523d82523d6000602084013e61092d565b606091505b5091509150816109db5760408051808201909152601081526f2737903932bb32b93a103932b0b9b7b760811b6020820152815160441161096d5750600481015b7f3c4b96f0117ea792d5c26cf00a23b93d220325ef34e352d05103b1971c8cb54c8160405161099c9190611107565b60405180910390a1806040516020016109b5919061113d565b60408051601f198184030181529082905262461bcd60e51b825261014691600401611107565b866001600160a01b0316336001600160a01b03167fab7bccecddf9b5629e0d45e9fcc3c9d353ae417ddb20dd83eb7c9fe71725de478888604051610a20929190611179565b60405180910390a350505050505050565b60405163732a2ccf60e01b81526000600482018190523360248301529073__$28d2455bd764ba806e1ab599ce1a0785f1$__9063732a2ccf90604401602060405180830381865af4158015610a8a573d6000803e3d6000fd5b505050506040513d601f19601f82011682018060405250810190610aae919061103e565b905073__$28d2455bd764ba806e1ab599ce1a0785f1$__63bc2b405c600033610ad734866110a4565b6040518463ffffffff1660e01b8152600401610af593929190611085565b60006040518083038186803b158015610b0d57600080fd5b505af4158015610b21573d6000803e3d6000fd5b5050505050565b60008111610b695760405162461bcd60e51b815260206004820152600e60248201526d125b9d985b1a5908185b5bdd5b9d60921b6044820152606401610146565b60405163732a2ccf60e01b81526000600482018190523360248301529073__$28d2455bd764ba806e1ab599ce1a0785f1$__9063732a2ccf90604401602060405180830381865af4158015610bc2573d6000803e3d6000fd5b505050506040513d601f19601f82011682018060405250810190610be6919061103e565b905081811015610c085760405162461bcd60e51b815260040161014690611057565b73__$28d2455bd764ba806e1ab599ce1a0785f1$__63bc2b405c600033610c2f8686611025565b6040518463ffffffff1660e01b8152600401610c4d93929190611085565b60006040518083038186803b158015610c6557600080fd5b505af4158015610c79573d6000803e3d6000fd5b505060405133925084156108fc02915084906000818181858888f19350505050158015610caa573d6000803e3d6000fd5b5060405182815233907f884edad9ce6fa2440d8a54cc123490eb96d2768479d49ff9c7366125a94243649060200160405180910390a25050565b600080805b604051636f59ec4b60e11b81526000600482015273__$28d2455bd764ba806e1ab599ce1a0785f1$__9063deb3d89690602401602060405180830381865af4158015610d39573d6000803e3d6000fd5b505050506040513d601f19601f82011682018060405250810190610d5d919061103e565b811015610e88576040516368d54f3f60e11b8152600060048201819052602482018390529073__$28d2455bd764ba806e1ab599ce1a0785f1$__9063d1aa9e7e90604401602060405180830381865af4158015610dbe573d6000803e3d6000fd5b505050506040513d601f19601f82011682018060405250810190610de2919061119a565b60405163732a2ccf60e01b8152600060048201526001600160a01b038216602482015290915073__$28d2455bd764ba806e1ab599ce1a0785f1$__9063732a2ccf90604401602060405180830381865af4158015610e44573d6000803e3d6000fd5b505050506040513d601f19601f82011682018060405250810190610e68919061103e565b610e7290846110a4565b9250508080610e80906111b7565b915050610ce9565b50919050565b600060208284031215610ea057600080fd5b5035919050565b6001600160a01b0381168114610ebc57600080fd5b50565b60008060408385031215610ed257600080fd5b8235610edd81610ea7565b946020939093013593505050565b634e487b7160e01b600052604160045260246000fd5b600080600060608486031215610f1657600080fd5b8335610f2181610ea7565b925060208401359150604084013567ffffffffffffffff80821115610f4557600080fd5b818601915086601f830112610f5957600080fd5b813581811115610f6b57610f6b610eeb565b604051601f8201601f19908116603f01168101908382118183101715610f9357610f93610eeb565b81604052828152896020848701011115610fac57600080fd5b8260208601602083013760006020848301015280955050505050509250925092565b60208082526021908201527f4f6e6c79206f776e65722063616e2063616c6c20746869732066756e6374696f6040820152603760f91b606082015260800190565b634e487b7160e01b600052601160045260246000fd5b818103818111156110385761103861100f565b92915050565b60006020828403121561105057600080fd5b5051919050565b602080825260149082015273496e73756666696369656e742062616c616e636560601b604082015260600190565b9283526001600160a01b03919091166020830152604082015260600190565b808201808211156110385761103861100f565b60005b838110156110d25781810151838201526020016110ba565b50506000910152565b600081518084526110f38160208601602086016110b7565b601f01601f19169290920160200192915050565b60208152600061111a60208301846110db565b9392505050565b600082516111338184602087016110b7565b9190910192915050565b7302a3930b739b0b1ba34b7b7103330b4b632b21d160651b81526000825161116c8160148501602087016110b7565b9190910160140192915050565b82815260406020820152600061119260408301846110db565b949350505050565b6000602082840312156111ac57600080fd5b815161111a81610ea7565b6000600182016111c9576111c961100f565b506001019056fea2646970667358221220d3b4751dced54d251ac7e2f574217f332568aa11ec952b067a956d448c01c5e864736f6c63430008130033",
  "linkReferences": {
    "contracts/RpcGo.sol": {
      "IterableMapping": [
        {
          "length": 20,
          "start": 977
        },
        {
          "length": 20,
          "start": 1107
        },
        {
          "length": 20,
          "start": 1221
        },
        {
          "length": 20,
          "start": 1442
        },
        {
          "length": 20,
          "start": 1626
        },
        {
          "length": 20,
          "start": 1853
        },
        {
          "length": 20,
          "start": 1978
        },
        {
          "length": 20,
          "start": 2140
        },
        {
          "length": 20,
          "start": 2700
        },
        {
          "length": 20,
          "start": 2798
        },
        {
          "length": 20,
          "start": 3012
        },
        {
          "length": 20,
          "start": 3142
        },
        {
          "length": 20,
          "start": 3387
        },
        {
          "length": 20,
          "start": 3520
        },
        {
          "length": 20,
          "start": 3654
        }
      ]
    }
  },
  "deployedLinkReferences": {
    "contracts/RpcGo.sol": {
      "IterableMapping": [
        {
          "length": 20,
          "start": 917
        },
        {
          "length": 20,
          "start": 1047
        },
        {
          "length": 20,
          "start": 1161
        },
        {
          "length": 20,
          "start": 1382
        },
        {
          "length": 20,
          "start": 1566
        },
        {
          "length": 20,
          "start": 1793
        },
        {
          "length": 20,
          "start": 1918
        },
        {
          "length": 20,
          "start": 2080
        },
        {
          "length": 20,
          "start": 2640
        },
        {
          "length": 20,
          "start": 2738
        },
        {
          "length": 20,
          "start": 2952
        },
        {
          "length": 20,
          "start": 3082
        },
        {
          "length": 20,
          "start": 3327
        },
        {
          "length": 20,
          "start": 3460
        },
        {
          "length": 20,
          "start": 3594
        }
      ]
    }
  }
}