{
  "_format": "hh-sol-artifact-1",
  "contractName": "RpcGo",
  "sourceName": "contracts/RpcGo.sol",
  "abi": [
    {
      "inputs": [],
      "stateMutability": "nonpayable",
      "type": "constructor"
    },
    {
      "anonymous": false,
      "inputs": [
        {
          "indexed": true,
          "internalType": "address",
          "name": "account",
          "type": "address"
        },
        {
          "indexed": false,
          "internalType": "uint256",
          "name": "amount",
          "type": "uint256"
        }
      ],
      "name": "Deposit",
      "type": "event"
    },
    {
      "anonymous": false,
      "inputs": [
        {
          "indexed": true,
          "internalType": "address",
          "name": "from",
          "type": "address"
        },
        {
          "indexed": true,
          "internalType": "address",
          "name": "to",
          "type": "address"
        },
        {
          "indexed": false,
          "internalType": "uint256",
          "name": "value",
          "type": "uint256"
        },
        {
          "indexed": false,
          "internalType": "bytes",
          "name": "data",
          "type": "bytes"
        }
      ],
      "name": "ExecuteTransaction",
      "type": "event"
    },
    {
      "anonymous": false,
      "inputs": [
        {
          "indexed": false,
          "internalType": "bytes",
          "name": "data",
          "type": "bytes"
        }
      ],
      "name": "LogData",
      "type": "event"
    },
    {
      "anonymous": false,
      "inputs": [
        {
          "indexed": false,
          "internalType": "uint256",
          "name": "amount",
          "type": "uint256"
        }
      ],
      "name": "OwnerWithdraw",
      "type": "event"
    },
    {
      "anonymous": false,
      "inputs": [
        {
          "indexed": true,
          "internalType": "address",
          "name": "account",
          "type": "address"
        },
        {
          "indexed": false,
          "internalType": "uint256",
          "name": "amount",
          "type": "uint256"
        }
      ],
      "name": "Payment",
      "type": "event"
    },
    {
      "anonymous": false,
      "inputs": [
        {
          "indexed": false,
          "internalType": "string",
          "name": "reason",
          "type": "string"
        }
      ],
      "name": "RevertReason",
      "type": "event"
    },
    {
      "anonymous": false,
      "inputs": [
        {
          "indexed": true,
          "internalType": "address",
          "name": "from",
          "type": "address"
        },
        {
          "indexed": true,
          "internalType": "address",
          "name": "to",
          "type": "address"
        },
        {
          "indexed": false,
          "internalType": "uint256",
          "name": "amount",
          "type": "uint256"
        }
      ],
      "name": "TransferAccount",
      "type": "event"
    },
    {
      "anonymous": false,
      "inputs": [
        {
          "indexed": true,
          "internalType": "address",
          "name": "account",
          "type": "address"
        },
        {
          "indexed": false,
          "internalType": "uint256",
          "name": "amount",
          "type": "uint256"
        }
      ],
      "name": "Withdraw",
      "type": "event"
    },
    {
      "inputs": [],
      "name": "deposit",
      "outputs": [],
      "stateMutability": "payable",
      "type": "function"
    },
    {
      "inputs": [
        {
          "internalType": "address",
          "name": "account",
          "type": "address"
        }
      ],
      "name": "getAccountBalance",
      "outputs": [
        {
          "internalType": "uint256",
          "name": "",
          "type": "uint256"
        }
      ],
      "stateMutability": "view",
      "type": "function"
    },
    {
      "inputs": [],
      "name": "getTotalAccountsBalance",
      "outputs": [
        {
          "internalType": "uint256",
          "name": "",
          "type": "uint256"
        }
      ],
      "stateMutability": "view",
      "type": "function"
    },
    {
      "inputs": [],
      "name": "ownerWithdraw",
      "outputs": [],
      "stateMutability": "nonpayable",
      "type": "function"
    },
    {
      "inputs": [
        {
          "internalType": "uint256",
          "name": "amount",
          "type": "uint256"
        }
      ],
      "name": "ownerWithdrawAmount",
      "outputs": [],
      "stateMutability": "nonpayable",
      "type": "function"
    },
    {
      "inputs": [
        {
          "internalType": "uint256",
          "name": "_feeAmount",
          "type": "uint256"
        }
      ],
      "name": "setFeeAmount",
      "outputs": [],
      "stateMutability": "nonpayable",
      "type": "function"
    },
    {
      "inputs": [
        {
          "internalType": "address",
          "name": "to",
          "type": "address"
        },
        {
          "internalType": "uint256",
          "name": "value",
          "type": "uint256"
        },
        {
          "internalType": "bytes",
          "name": "data",
          "type": "bytes"
        }
      ],
      "name": "submitTransaction",
      "outputs": [],
      "stateMutability": "payable",
      "type": "function"
    },
    {
      "inputs": [
        {
          "internalType": "address",
          "name": "to",
          "type": "address"
        },
        {
          "internalType": "uint256",
          "name": "amount",
          "type": "uint256"
        }
      ],
      "name": "transferAccount",
      "outputs": [],
      "stateMutability": "nonpayable",
      "type": "function"
    },
    {
      "inputs": [
        {
          "internalType": "uint256",
          "name": "amount",
          "type": "uint256"
        }
      ],
      "name": "withdrawBalance",
      "outputs": [],
      "stateMutability": "nonpayable",
      "type": "function"
    },
    {
      "inputs": [],
      "name": "withdrawRemainingBalance",
      "outputs": [],
      "stateMutability": "nonpayable",
      "type": "function"
    }
  ],
  "bytecode": "0x6080604052655af3107a400060055534801561001a57600080fd5b50600480546001600160a01b031916331790556114518061003c6000396000f3fe6080604052600436106100915760003560e01c806393423e9c1161005957806393423e9c14610134578063b91d53c614610154578063c642747414610169578063d0e30db01461017c578063da76d5cd1461018457600080fd5b80634311de8f14610096578063597c1b23146100ad5780636b392680146100d45780638ed8249c146100f45780639169187314610114575b600080fd5b3480156100a257600080fd5b506100ab6101a4565b005b3480156100b957600080fd5b506100c26102b5565b60405190815260200160405180910390f35b3480156100e057600080fd5b506100ab6100ef3660046110c2565b61045f565b34801561010057600080fd5b506100ab61010f3660046110c2565b61048e565b34801561012057600080fd5b506100ab61012f3660046110f3565b610596565b34801561014057600080fd5b506100c261014f36600461111f565b610831565b34801561016057600080fd5b506100ab6108bd565b6100ab610177366004611159565b610a58565b6100ab610de0565b34801561019057600080fd5b506100ab61019f3660046110c2565b610f06565b6004546001600160a01b031633146101d75760405162461bcd60e51b81526004016101ce90611226565b60405180910390fd5b4760006101e26102b5565b905060006101f0828461127d565b9050600081116102425760405162461bcd60e51b815260206004820181905260248201527f4e6f2072656d61696e696e672062616c616e636520746f20776974686472617760448201526064016101ce565b6004546040516001600160a01b039091169082156108fc029083906000818181858888f1935050505015801561027c573d6000803e3d6000fd5b506040518181527fa20809e697380eaea0fd13bf4d14b00e2ef29559ef361501189d3be2e9b0ec859060200160405180910390a1505050565b600080805b604051636f59ec4b60e11b81526000600482015273__$28d2455bd764ba806e1ab599ce1a0785f1$__9063deb3d89690602401602060405180830381865af415801561030a573d6000803e3d6000fd5b505050506040513d601f19601f8201168201806040525081019061032e9190611290565b811015610459576040516368d54f3f60e11b8152600060048201819052602482018390529073__$28d2455bd764ba806e1ab599ce1a0785f1$__9063d1aa9e7e90604401602060405180830381865af415801561038f573d6000803e3d6000fd5b505050506040513d601f19601f820116820180604052508101906103b391906112a9565b60405163732a2ccf60e01b8152600060048201526001600160a01b038216602482015290915073__$28d2455bd764ba806e1ab599ce1a0785f1$__9063732a2ccf90604401602060405180830381865af4158015610415573d6000803e3d6000fd5b505050506040513d601f19601f820116820180604052508101906104399190611290565b61044390846112c6565b9250508080610451906112d9565b9150506102ba565b50919050565b6004546001600160a01b031633146104895760405162461bcd60e51b81526004016101ce90611226565b600555565b6004546001600160a01b031633146104b85760405162461bcd60e51b81526004016101ce90611226565b4760006104c36102b5565b905060006104d1828461127d565b90508084106105225760405162461bcd60e51b815260206004820152601c60248201527f4e6f7420656e6f7567682066756e647320746f2077697468647261770000000060448201526064016101ce565b6004546040516001600160a01b039091169085156108fc029086906000818181858888f1935050505015801561055c573d6000803e3d6000fd5b506040518481527fa20809e697380eaea0fd13bf4d14b00e2ef29559ef361501189d3be2e9b0ec859060200160405180910390a150505050565b600081116105d75760405162461bcd60e51b815260206004820152600e60248201526d125b9d985b1a5908185b5bdd5b9d60921b60448201526064016101ce565b60405163732a2ccf60e01b81526000600482018190523360248301529073__$28d2455bd764ba806e1ab599ce1a0785f1$__9063732a2ccf90604401602060405180830381865af4158015610630573d6000803e3d6000fd5b505050506040513d601f19601f820116820180604052508101906106549190611290565b60405163732a2ccf60e01b81526000600482018190526001600160a01b038616602483015291925073__$28d2455bd764ba806e1ab599ce1a0785f1$__9063732a2ccf90604401602060405180830381865af41580156106b8573d6000803e3d6000fd5b505050506040513d601f19601f820116820180604052508101906106dc9190611290565b9050828210156106fe5760405162461bcd60e51b81526004016101ce906112f2565b73__$28d2455bd764ba806e1ab599ce1a0785f1$__63bc2b405c600033610725878761127d565b6040518463ffffffff1660e01b815260040161074393929190611320565b60006040518083038186803b15801561075b57600080fd5b505af415801561076f573d6000803e3d6000fd5b5073__$28d2455bd764ba806e1ab599ce1a0785f1$__925063bc2b405c9150600090508661079d87866112c6565b6040518463ffffffff1660e01b81526004016107bb93929190611320565b60006040518083038186803b1580156107d357600080fd5b505af41580156107e7573d6000803e3d6000fd5b50506040518581526001600160a01b03871692503391507fd69be2ad0df9902412768a47559f760396739fe2ccb5c9ebc1e575bdce44c69a9060200160405180910390a350505050565b60405163732a2ccf60e01b81526000600482018190526001600160a01b03831660248301529073__$28d2455bd764ba806e1ab599ce1a0785f1$__9063732a2ccf90604401602060405180830381865af4158015610893573d6000803e3d6000fd5b505050506040513d601f19601f820116820180604052508101906108b79190611290565b92915050565b60405163732a2ccf60e01b81526000600482018190523360248301529073__$28d2455bd764ba806e1ab599ce1a0785f1$__9063732a2ccf90604401602060405180830381865af4158015610916573d6000803e3d6000fd5b505050506040513d601f19601f8201168201806040525081019061093a9190611290565b9050600081116109855760405162461bcd60e51b81526020600482015260166024820152754e6f2062616c616e636520746f20776974686472617760501b60448201526064016101ce565b604051632f0ad01760e21b815273__$28d2455bd764ba806e1ab599ce1a0785f1$__9063bc2b405c906109c19060009033908290600401611320565b60006040518083038186803b1580156109d957600080fd5b505af41580156109ed573d6000803e3d6000fd5b505060405133925083156108fc02915083906000818181858888f19350505050158015610a1e573d6000803e3d6000fd5b5060405181815233907f884edad9ce6fa2440d8a54cc123490eb96d2768479d49ff9c7366125a9424364906020015b60405180910390a250565b60405163732a2ccf60e01b8152600060048201819052336024830152349173__$28d2455bd764ba806e1ab599ce1a0785f1$__9063732a2ccf90604401602060405180830381865af4158015610ab2573d6000803e3d6000fd5b505050506040513d601f19601f82011682018060405250810190610ad69190611290565b9050600554821115610b7157600554610aef908361127d565b9150600073__$28d2455bd764ba806e1ab599ce1a0785f1$__63bc2b405c90913360055485610b1e91906112c6565b6040518463ffffffff1660e01b8152600401610b3c93929190611320565b60006040518083038186803b158015610b5457600080fd5b505af4158015610b68573d6000803e3d6000fd5b50505050610c0f565b600554811015610b935760405162461bcd60e51b81526004016101ce906112f2565b600073__$28d2455bd764ba806e1ab599ce1a0785f1$__63bc2b405c90913360055485610bc0919061127d565b6040518463ffffffff1660e01b8152600401610bde93929190611320565b60006040518083038186803b158015610bf657600080fd5b505af4158015610c0a573d6000803e3d6000fd5b505050505b60055460405190815233907fd4f43975feb89f48dd30cabbb32011045be187d1e11c8ea9faa43efc352825199060200160405180910390a27fe33eb0896a1b189f05b8c6d69ce71e4db20a0f91fc82ae4d6384ad76ba6e558083604051610c76919061138f565b60405180910390a1600080866001600160a01b03168686604051610c9a91906113a2565b60006040518083038185875af1925050503d8060008114610cd7576040519150601f19603f3d011682016040523d82523d6000602084013e610cdc565b606091505b509150915081610d8a5760408051808201909152601081526f2737903932bb32b93a103932b0b9b7b760811b60208201528151604411610d1c5750600481015b7f3c4b96f0117ea792d5c26cf00a23b93d220325ef34e352d05103b1971c8cb54c81604051610d4b919061138f565b60405180910390a180604051602001610d6491906113be565b60408051601f198184030181529082905262461bcd60e51b82526101ce9160040161138f565b866001600160a01b0316336001600160a01b03167fab7bccecddf9b5629e0d45e9fcc3c9d353ae417ddb20dd83eb7c9fe71725de478888604051610dcf9291906113fa565b60405180910390a350505050505050565b60405163732a2ccf60e01b81526000600482018190523360248301529073__$28d2455bd764ba806e1ab599ce1a0785f1$__9063732a2ccf90604401602060405180830381865af4158015610e39573d6000803e3d6000fd5b505050506040513d601f19601f82011682018060405250810190610e5d9190611290565b905073__$28d2455bd764ba806e1ab599ce1a0785f1$__63bc2b405c600033610e8634866112c6565b6040518463ffffffff1660e01b8152600401610ea493929190611320565b60006040518083038186803b158015610ebc57600080fd5b505af4158015610ed0573d6000803e3d6000fd5b50506040513481523392507fe1fffcc4923d04b559f4d29a8bfc6cda04eb5b0d3c460751c2402c5c5cc9109c9150602001610a4d565b60008111610f475760405162461bcd60e51b815260206004820152600e60248201526d125b9d985b1a5908185b5bdd5b9d60921b60448201526064016101ce565b60405163732a2ccf60e01b81526000600482018190523360248301529073__$28d2455bd764ba806e1ab599ce1a0785f1$__9063732a2ccf90604401602060405180830381865af4158015610fa0573d6000803e3d6000fd5b505050506040513d601f19601f82011682018060405250810190610fc49190611290565b905081811015610fe65760405162461bcd60e51b81526004016101ce906112f2565b73__$28d2455bd764ba806e1ab599ce1a0785f1$__63bc2b405c60003361100d868661127d565b6040518463ffffffff1660e01b815260040161102b93929190611320565b60006040518083038186803b15801561104357600080fd5b505af4158015611057573d6000803e3d6000fd5b505060405133925084156108fc02915084906000818181858888f19350505050158015611088573d6000803e3d6000fd5b5060405182815233907f884edad9ce6fa2440d8a54cc123490eb96d2768479d49ff9c7366125a94243649060200160405180910390a25050565b6000602082840312156110d457600080fd5b5035919050565b6001600160a01b03811681146110f057600080fd5b50565b6000806040838503121561110657600080fd5b8235611111816110db565b946020939093013593505050565b60006020828403121561113157600080fd5b813561113c816110db565b9392505050565b634e487b7160e01b600052604160045260246000fd5b60008060006060848603121561116e57600080fd5b8335611179816110db565b925060208401359150604084013567ffffffffffffffff8082111561119d57600080fd5b818601915086601f8301126111b157600080fd5b8135818111156111c3576111c3611143565b604051601f8201601f19908116603f011681019083821181831017156111eb576111eb611143565b8160405282815289602084870101111561120457600080fd5b8260208601602083013760006020848301015280955050505050509250925092565b60208082526021908201527f4f6e6c79206f776e65722063616e2063616c6c20746869732066756e6374696f6040820152603760f91b606082015260800190565b634e487b7160e01b600052601160045260246000fd5b818103818111156108b7576108b7611267565b6000602082840312156112a257600080fd5b5051919050565b6000602082840312156112bb57600080fd5b815161113c816110db565b808201808211156108b7576108b7611267565b6000600182016112eb576112eb611267565b5060010190565b602080825260149082015273496e73756666696369656e742062616c616e636560601b604082015260600190565b9283526001600160a01b03919091166020830152604082015260600190565b60005b8381101561135a578181015183820152602001611342565b50506000910152565b6000815180845261137b81602086016020860161133f565b601f01601f19169290920160200192915050565b60208152600061113c6020830184611363565b600082516113b481846020870161133f565b9190910192915050565b7302a3930b739b0b1ba34b7b7103330b4b632b21d160651b8152600082516113ed81601485016020870161133f565b9190910160140192915050565b8281526040602082015260006114136040830184611363565b94935050505056fea264697066735822122085ce53ffbd6b7dd2e0d09197323895fc3c811cc36255cb7d58f1e3ee687f810964736f6c63430008130033",
  "linkReferences": {
    "contracts/RpcGo.sol": {
      "IterableMapping": [
        {
          "length": 20,
          "start": 780
        },
        {
          "length": 20,
          "start": 913
        },
        {
          "length": 20,
          "start": 1047
        },
        {
          "length": 20,
          "start": 1586
        },
        {
          "length": 20,
          "start": 1722
        },
        {
          "length": 20,
          "start": 1852
        },
        {
          "length": 20,
          "start": 1966
        },
        {
          "length": 20,
          "start": 2197
        },
        {
          "length": 20,
          "start": 2328
        },
        {
          "length": 20,
          "start": 2512
        },
        {
          "length": 20,
          "start": 2740
        },
        {
          "length": 20,
          "start": 2865
        },
        {
          "length": 20,
          "start": 3027
        },
        {
          "length": 20,
          "start": 3643
        },
        {
          "length": 20,
          "start": 3741
        },
        {
          "length": 20,
          "start": 4002
        },
        {
          "length": 20,
          "start": 4132
        }
      ]
    }
  },
  "deployedLinkReferences": {
    "contracts/RpcGo.sol": {
      "IterableMapping": [
        {
          "length": 20,
          "start": 720
        },
        {
          "length": 20,
          "start": 853
        },
        {
          "length": 20,
          "start": 987
        },
        {
          "length": 20,
          "start": 1526
        },
        {
          "length": 20,
          "start": 1662
        },
        {
          "length": 20,
          "start": 1792
        },
        {
          "length": 20,
          "start": 1906
        },
        {
          "length": 20,
          "start": 2137
        },
        {
          "length": 20,
          "start": 2268
        },
        {
          "length": 20,
          "start": 2452
        },
        {
          "length": 20,
          "start": 2680
        },
        {
          "length": 20,
          "start": 2805
        },
        {
          "length": 20,
          "start": 2967
        },
        {
          "length": 20,
          "start": 3583
        },
        {
          "length": 20,
          "start": 3681
        },
        {
          "length": 20,
          "start": 3942
        },
        {
          "length": 20,
          "start": 4072
        }
      ]
    }
  }
}