{"contracts/RpcGo.sol":{"RpcGo":{"abi":[{"inputs":[],"stateMutability":"nonpayable","type":"constructor"},{"anonymous":false,"inputs":[{"indexed":true,"internalType":"address","name":"account","type":"address"},{"indexed":false,"internalType":"uint256","name":"amount","type":"uint256"}],"name":"Deposit","type":"event"},{"anonymous":false,"inputs":[{"indexed":true,"internalType":"address","name":"from","type":"address"},{"indexed":true,"internalType":"address","name":"to","type":"address"},{"indexed":false,"internalType":"uint256","name":"value","type":"uint256"},{"indexed":false,"internalType":"bytes","name":"data","type":"bytes"}],"name":"ExecuteTransaction","type":"event"},{"anonymous":false,"inputs":[{"indexed":false,"internalType":"bytes","name":"data","type":"bytes"}],"name":"LogData","type":"event"},{"anonymous":false,"inputs":[{"indexed":false,"internalType":"uint256","name":"amount","type":"uint256"}],"name":"OwnerWithdraw","type":"event"},{"anonymous":false,"inputs":[{"indexed":true,"internalType":"address","name":"account","type":"address"},{"indexed":false,"internalType":"uint256","name":"amount","type":"uint256"}],"name":"Payment","type":"event"},{"anonymous":false,"inputs":[{"indexed":false,"internalType":"string","name":"reason","type":"string"}],"name":"RevertReason","type":"event"},{"anonymous":false,"inputs":[{"indexed":true,"internalType":"address","name":"from","type":"address"},{"indexed":true,"internalType":"address","name":"to","type":"address"},{"indexed":false,"internalType":"uint256","name":"amount","type":"uint256"}],"name":"TransferAccount","type":"event"},{"anonymous":false,"inputs":[{"indexed":true,"internalType":"address","name":"account","type":"address"},{"indexed":false,"internalType":"uint256","name":"amount","type":"uint256"}],"name":"Withdraw","type":"event"},{"inputs":[],"name":"deposit","outputs":[],"stateMutability":"payable","type":"function"},{"inputs":[{"internalType":"address","name":"account","type":"address"}],"name":"getAccountBalance","outputs":[{"internalType":"uint256","name":"","type":"uint256"}],"stateMutability":"view","type":"function"},{"inputs":[],"name":"getTotalAccountsBalance","outputs":[{"internalType":"uint256","name":"","type":"uint256"}],"stateMutability":"view","type":"function"},{"inputs":[],"name":"ownerWithdraw","outputs":[],"stateMutability":"nonpayable","type":"function"},{"inputs":[{"internalType":"uint256","name":"amount","type":"uint256"}],"name":"ownerWithdrawAmount","outputs":[],"stateMutability":"nonpayable","type":"function"},{"inputs":[{"internalType":"uint256","name":"_feeAmount","type":"uint256"}],"name":"setFeeAmount","outputs":[],"stateMutability":"nonpayable","type":"function"},{"inputs":[{"internalType":"address","name":"to","type":"address"},{"internalType":"uint256","name":"value","type":"uint256"},{"internalType":"bytes","name":"data","type":"bytes"}],"name":"submitTransaction","outputs":[],"stateMutability":"payable","type":"function"},{"inputs":[{"internalType":"address","name":"to","type":"address"},{"internalType":"uint256","name":"amount","type":"uint256"}],"name":"transferAccount","outputs":[],"stateMutability":"nonpayable","type":"function"},{"inputs":[{"internalType":"uint256","name":"amount","type":"uint256"}],"name":"withdrawBalance","outputs":[],"stateMutability":"nonpayable","type":"function"},{"inputs":[],"name":"withdrawRemainingBalance","outputs":[],"stateMutability":"nonpayable","type":"function"}],"evm":{"bytecode":{"linkReferences":{"contracts/RpcGo.sol":{"IterableMapping":[{"length":20,"start":780},{"length":20,"start":913},{"length":20,"start":1047},{"length":20,"start":1586},{"length":20,"start":1722},{"length":20,"start":1852},{"length":20,"start":1966},{"length":20,"start":2197},{"length":20,"start":2328},{"length":20,"start":2512},{"length":20,"start":2740},{"length":20,"start":2865},{"length":20,"start":3027},{"length":20,"start":3643},{"length":20,"start":3741},{"length":20,"start":4002},{"length":20,"start":4132}]}},"object":"6080604052655af3107a400060055534801561001a57600080fd5b50600480546001600160a01b031916331790556114518061003c6000396000f3fe6080604052600436106100915760003560e01c806393423e9c1161005957806393423e9c14610134578063b91d53c614610154578063c642747414610169578063d0e30db01461017c578063da76d5cd1461018457600080fd5b80634311de8f14610096578063597c1b23146100ad5780636b392680146100d45780638ed8249c146100f45780639169187314610114575b600080fd5b3480156100a257600080fd5b506100ab6101a4565b005b3480156100b957600080fd5b506100c26102b5565b60405190815260200160405180910390f35b3480156100e057600080fd5b506100ab6100ef3660046110c2565b61045f565b34801561010057600080fd5b506100ab61010f3660046110c2565b61048e565b34801561012057600080fd5b506100ab61012f3660046110f3565b610596565b34801561014057600080fd5b506100c261014f36600461111f565b610831565b34801561016057600080fd5b506100ab6108bd565b6100ab610177366004611159565b610a58565b6100ab610de0565b34801561019057600080fd5b506100ab61019f3660046110c2565b610f06565b6004546001600160a01b031633146101d75760405162461bcd60e51b81526004016101ce90611226565b60405180910390fd5b4760006101e26102b5565b905060006101f0828461127d565b9050600081116102425760405162461bcd60e51b815260206004820181905260248201527f4e6f2072656d61696e696e672062616c616e636520746f20776974686472617760448201526064016101ce565b6004546040516001600160a01b039091169082156108fc029083906000818181858888f1935050505015801561027c573d6000803e3d6000fd5b506040518181527fa20809e697380eaea0fd13bf4d14b00e2ef29559ef361501189d3be2e9b0ec859060200160405180910390a1505050565b600080805b604051636f59ec4b60e11b81526000600482015273__$28d2455bd764ba806e1ab599ce1a0785f1$__9063deb3d89690602401602060405180830381865af415801561030a573d6000803e3d6000fd5b505050506040513d601f19601f8201168201806040525081019061032e9190611290565b811015610459576040516368d54f3f60e11b8152600060048201819052602482018390529073__$28d2455bd764ba806e1ab599ce1a0785f1$__9063d1aa9e7e90604401602060405180830381865af415801561038f573d6000803e3d6000fd5b505050506040513d601f19601f820116820180604052508101906103b391906112a9565b60405163732a2ccf60e01b8152600060048201526001600160a01b038216602482015290915073__$28d2455bd764ba806e1ab599ce1a0785f1$__9063732a2ccf90604401602060405180830381865af4158015610415573d6000803e3d6000fd5b505050506040513d601f19601f820116820180604052508101906104399190611290565b61044390846112c6565b9250508080610451906112d9565b9150506102ba565b50919050565b6004546001600160a01b031633146104895760405162461bcd60e51b81526004016101ce90611226565b600555565b6004546001600160a01b031633146104b85760405162461bcd60e51b81526004016101ce90611226565b4760006104c36102b5565b905060006104d1828461127d565b90508084106105225760405162461bcd60e51b815260206004820152601c60248201527f4e6f7420656e6f7567682066756e647320746f2077697468647261770000000060448201526064016101ce565b6004546040516001600160a01b039091169085156108fc029086906000818181858888f1935050505015801561055c573d6000803e3d6000fd5b506040518481527fa20809e697380eaea0fd13bf4d14b00e2ef29559ef361501189d3be2e9b0ec859060200160405180910390a150505050565b600081116105d75760405162461bcd60e51b815260206004820152600e60248201526d125b9d985b1a5908185b5bdd5b9d60921b60448201526064016101ce565b60405163732a2ccf60e01b81526000600482018190523360248301529073__$28d2455bd764ba806e1ab599ce1a0785f1$__9063732a2ccf90604401602060405180830381865af4158015610630573d6000803e3d6000fd5b505050506040513d601f19601f820116820180604052508101906106549190611290565b60405163732a2ccf60e01b81526000600482018190526001600160a01b038616602483015291925073__$28d2455bd764ba806e1ab599ce1a0785f1$__9063732a2ccf90604401602060405180830381865af41580156106b8573d6000803e3d6000fd5b505050506040513d601f19601f820116820180604052508101906106dc9190611290565b9050828210156106fe5760405162461bcd60e51b81526004016101ce906112f2565b73__$28d2455bd764ba806e1ab599ce1a0785f1$__63bc2b405c600033610725878761127d565b6040518463ffffffff1660e01b815260040161074393929190611320565b60006040518083038186803b15801561075b57600080fd5b505af415801561076f573d6000803e3d6000fd5b5073__$28d2455bd764ba806e1ab599ce1a0785f1$__925063bc2b405c9150600090508661079d87866112c6565b6040518463ffffffff1660e01b81526004016107bb93929190611320565b60006040518083038186803b1580156107d357600080fd5b505af41580156107e7573d6000803e3d6000fd5b50506040518581526001600160a01b03871692503391507fd69be2ad0df9902412768a47559f760396739fe2ccb5c9ebc1e575bdce44c69a9060200160405180910390a350505050565b60405163732a2ccf60e01b81526000600482018190526001600160a01b03831660248301529073__$28d2455bd764ba806e1ab599ce1a0785f1$__9063732a2ccf90604401602060405180830381865af4158015610893573d6000803e3d6000fd5b505050506040513d601f19601f820116820180604052508101906108b79190611290565b92915050565b60405163732a2ccf60e01b81526000600482018190523360248301529073__$28d2455bd764ba806e1ab599ce1a0785f1$__9063732a2ccf90604401602060405180830381865af4158015610916573d6000803e3d6000fd5b505050506040513d601f19601f8201168201806040525081019061093a9190611290565b9050600081116109855760405162461bcd60e51b81526020600482015260166024820152754e6f2062616c616e636520746f20776974686472617760501b60448201526064016101ce565b604051632f0ad01760e21b815273__$28d2455bd764ba806e1ab599ce1a0785f1$__9063bc2b405c906109c19060009033908290600401611320565b60006040518083038186803b1580156109d957600080fd5b505af41580156109ed573d6000803e3d6000fd5b505060405133925083156108fc02915083906000818181858888f19350505050158015610a1e573d6000803e3d6000fd5b5060405181815233907f884edad9ce6fa2440d8a54cc123490eb96d2768479d49ff9c7366125a9424364906020015b60405180910390a250565b60405163732a2ccf60e01b8152600060048201819052336024830152349173__$28d2455bd764ba806e1ab599ce1a0785f1$__9063732a2ccf90604401602060405180830381865af4158015610ab2573d6000803e3d6000fd5b505050506040513d601f19601f82011682018060405250810190610ad69190611290565b9050600554821115610b7157600554610aef908361127d565b9150600073__$28d2455bd764ba806e1ab599ce1a0785f1$__63bc2b405c90913360055485610b1e91906112c6565b6040518463ffffffff1660e01b8152600401610b3c93929190611320565b60006040518083038186803b158015610b5457600080fd5b505af4158015610b68573d6000803e3d6000fd5b50505050610c0f565b600554811015610b935760405162461bcd60e51b81526004016101ce906112f2565b600073__$28d2455bd764ba806e1ab599ce1a0785f1$__63bc2b405c90913360055485610bc0919061127d565b6040518463ffffffff1660e01b8152600401610bde93929190611320565b60006040518083038186803b158015610bf657600080fd5b505af4158015610c0a573d6000803e3d6000fd5b505050505b60055460405190815233907fd4f43975feb89f48dd30cabbb32011045be187d1e11c8ea9faa43efc352825199060200160405180910390a27fe33eb0896a1b189f05b8c6d69ce71e4db20a0f91fc82ae4d6384ad76ba6e558083604051610c76919061138f565b60405180910390a1600080866001600160a01b03168686604051610c9a91906113a2565b60006040518083038185875af1925050503d8060008114610cd7576040519150601f19603f3d011682016040523d82523d6000602084013e610cdc565b606091505b509150915081610d8a5760408051808201909152601081526f2737903932bb32b93a103932b0b9b7b760811b60208201528151604411610d1c5750600481015b7f3c4b96f0117ea792d5c26cf00a23b93d220325ef34e352d05103b1971c8cb54c81604051610d4b919061138f565b60405180910390a180604051602001610d6491906113be565b60408051601f198184030181529082905262461bcd60e51b82526101ce9160040161138f565b866001600160a01b0316336001600160a01b03167fab7bccecddf9b5629e0d45e9fcc3c9d353ae417ddb20dd83eb7c9fe71725de478888604051610dcf9291906113fa565b60405180910390a350505050505050565b60405163732a2ccf60e01b81526000600482018190523360248301529073__$28d2455bd764ba806e1ab599ce1a0785f1$__9063732a2ccf90604401602060405180830381865af4158015610e39573d6000803e3d6000fd5b505050506040513d601f19601f82011682018060405250810190610e5d9190611290565b905073__$28d2455bd764ba806e1ab599ce1a0785f1$__63bc2b405c600033610e8634866112c6565b6040518463ffffffff1660e01b8152600401610ea493929190611320565b60006040518083038186803b158015610ebc57600080fd5b505af4158015610ed0573d6000803e3d6000fd5b50506040513481523392507fe1fffcc4923d04b559f4d29a8bfc6cda04eb5b0d3c460751c2402c5c5cc9109c9150602001610a4d565b60008111610f475760405162461bcd60e51b815260206004820152600e60248201526d125b9d985b1a5908185b5bdd5b9d60921b60448201526064016101ce565b60405163732a2ccf60e01b81526000600482018190523360248301529073__$28d2455bd764ba806e1ab599ce1a0785f1$__9063732a2ccf90604401602060405180830381865af4158015610fa0573d6000803e3d6000fd5b505050506040513d601f19601f82011682018060405250810190610fc49190611290565b905081811015610fe65760405162461bcd60e51b81526004016101ce906112f2565b73__$28d2455bd764ba806e1ab599ce1a0785f1$__63bc2b405c60003361100d868661127d565b6040518463ffffffff1660e01b815260040161102b93929190611320565b60006040518083038186803b15801561104357600080fd5b505af4158015611057573d6000803e3d6000fd5b505060405133925084156108fc02915084906000818181858888f19350505050158015611088573d6000803e3d6000fd5b5060405182815233907f884edad9ce6fa2440d8a54cc123490eb96d2768479d49ff9c7366125a94243649060200160405180910390a25050565b6000602082840312156110d457600080fd5b5035919050565b6001600160a01b03811681146110f057600080fd5b50565b6000806040838503121561110657600080fd5b8235611111816110db565b946020939093013593505050565b60006020828403121561113157600080fd5b813561113c816110db565b9392505050565b634e487b7160e01b600052604160045260246000fd5b60008060006060848603121561116e57600080fd5b8335611179816110db565b925060208401359150604084013567ffffffffffffffff8082111561119d57600080fd5b818601915086601f8301126111b157600080fd5b8135818111156111c3576111c3611143565b604051601f8201601f19908116603f011681019083821181831017156111eb576111eb611143565b8160405282815289602084870101111561120457600080fd5b8260208601602083013760006020848301015280955050505050509250925092565b60208082526021908201527f4f6e6c79206f776e65722063616e2063616c6c20746869732066756e6374696f6040820152603760f91b606082015260800190565b634e487b7160e01b600052601160045260246000fd5b818103818111156108b7576108b7611267565b6000602082840312156112a257600080fd5b5051919050565b6000602082840312156112bb57600080fd5b815161113c816110db565b808201808211156108b7576108b7611267565b6000600182016112eb576112eb611267565b5060010190565b602080825260149082015273496e73756666696369656e742062616c616e636560601b604082015260600190565b9283526001600160a01b03919091166020830152604082015260600190565b60005b8381101561135a578181015183820152602001611342565b50506000910152565b6000815180845261137b81602086016020860161133f565b601f01601f19169290920160200192915050565b60208152600061113c6020830184611363565b600082516113b481846020870161133f565b9190910192915050565b7302a3930b739b0b1ba34b7b7103330b4b632b21d160651b8152600082516113ed81601485016020870161133f565b9190910160140192915050565b8281526040602082015260006114136040830184611363565b94935050505056fea264697066735822122049966a0282013dd0636e9176bf780f8ca13fc52282c22d02dca0bd6d349a9a3c64736f6c63430008130033","opcodes":"PUSH1 0x80 PUSH1 0x40 MSTORE PUSH6 0x5AF3107A4000 PUSH1 0x5 SSTORE CALLVALUE DUP1 ISZERO PUSH2 0x1A JUMPI PUSH1 0x0 DUP1 REVERT JUMPDEST POP PUSH1 0x4 DUP1 SLOAD PUSH1 0x1 PUSH1 0x1 PUSH1 0xA0 SHL SUB NOT AND CALLER OR SWAP1 SSTORE PUSH2 0x1451 DUP1 PUSH2 0x3C PUSH1 0x0 CODECOPY PUSH1 0x0 RETURN INVALID PUSH1 0x80 PUSH1 0x40 MSTORE PUSH1 0x4 CALLDATASIZE LT PUSH2 0x91 JUMPI PUSH1 0x0 CALLDATALOAD PUSH1 0xE0 SHR DUP1 PUSH4 0x93423E9C GT PUSH2 0x59 JUMPI DUP1 PUSH4 0x93423E9C EQ PUSH2 0x134 JUMPI DUP1 PUSH4 0xB91D53C6 EQ PUSH2 0x154 JUMPI DUP1 PUSH4 0xC6427474 EQ PUSH2 0x169 JUMPI DUP1 PUSH4 0xD0E30DB0 EQ PUSH2 0x17C JUMPI DUP1 PUSH4 0xDA76D5CD EQ PUSH2 0x184 JUMPI PUSH1 0x0 DUP1 REVERT JUMPDEST DUP1 PUSH4 0x4311DE8F EQ PUSH2 0x96 JUMPI DUP1 PUSH4 0x597C1B23 EQ PUSH2 0xAD JUMPI DUP1 PUSH4 0x6B392680 EQ PUSH2 0xD4 JUMPI DUP1 PUSH4 0x8ED8249C EQ PUSH2 0xF4 JUMPI DUP1 PUSH4 0x91691873 EQ PUSH2 0x114 JUMPI JUMPDEST PUSH1 0x0 DUP1 REVERT JUMPDEST CALLVALUE DUP1 ISZERO PUSH2 0xA2 JUMPI PUSH1 0x0 DUP1 REVERT JUMPDEST POP PUSH2 0xAB PUSH2 0x1A4 JUMP JUMPDEST STOP JUMPDEST CALLVALUE DUP1 ISZERO PUSH2 0xB9 JUMPI PUSH1 0x0 DUP1 REVERT JUMPDEST POP PUSH2 0xC2 PUSH2 0x2B5 JUMP JUMPDEST PUSH1 0x40 MLOAD SWAP1 DUP2 MSTORE PUSH1 0x20 ADD PUSH1 0x40 MLOAD DUP1 SWAP2 SUB SWAP1 RETURN JUMPDEST CALLVALUE DUP1 ISZERO PUSH2 0xE0 JUMPI PUSH1 0x0 DUP1 REVERT JUMPDEST POP PUSH2 0xAB PUSH2 0xEF CALLDATASIZE PUSH1 0x4 PUSH2 0x10C2 JUMP JUMPDEST PUSH2 0x45F JUMP JUMPDEST CALLVALUE DUP1 ISZERO PUSH2 0x100 JUMPI PUSH1 0x0 DUP1 REVERT JUMPDEST POP PUSH2 0xAB PUSH2 0x10F CALLDATASIZE PUSH1 0x4 PUSH2 0x10C2 JUMP JUMPDEST PUSH2 0x48E JUMP JUMPDEST CALLVALUE DUP1 ISZERO PUSH2 0x120 JUMPI PUSH1 0x0 DUP1 REVERT JUMPDEST POP PUSH2 0xAB PUSH2 0x12F CALLDATASIZE PUSH1 0x4 PUSH2 0x10F3 JUMP JUMPDEST PUSH2 0x596 JUMP JUMPDEST CALLVALUE DUP1 ISZERO PUSH2 0x140 JUMPI PUSH1 0x0 DUP1 REVERT JUMPDEST POP PUSH2 0xC2 PUSH2 0x14F CALLDATASIZE PUSH1 0x4 PUSH2 0x111F JUMP JUMPDEST PUSH2 0x831 JUMP JUMPDEST CALLVALUE DUP1 ISZERO PUSH2 0x160 JUMPI PUSH1 0x0 DUP1 REVERT JUMPDEST POP PUSH2 0xAB PUSH2 0x8BD JUMP JUMPDEST PUSH2 0xAB PUSH2 0x177 CALLDATASIZE PUSH1 0x4 PUSH2 0x1159 JUMP JUMPDEST PUSH2 0xA58 JUMP JUMPDEST PUSH2 0xAB PUSH2 0xDE0 JUMP JUMPDEST CALLVALUE DUP1 ISZERO PUSH2 0x190 JUMPI PUSH1 0x0 DUP1 REVERT JUMPDEST POP PUSH2 0xAB PUSH2 0x19F CALLDATASIZE PUSH1 0x4 PUSH2 0x10C2 JUMP JUMPDEST PUSH2 0xF06 JUMP JUMPDEST PUSH1 0x4 SLOAD PUSH1 0x1 PUSH1 0x1 PUSH1 0xA0 SHL SUB AND CALLER EQ PUSH2 0x1D7 JUMPI PUSH1 0x40 MLOAD PUSH3 0x461BCD PUSH1 0xE5 SHL DUP2 MSTORE PUSH1 0x4 ADD PUSH2 0x1CE SWAP1 PUSH2 0x1226 JUMP JUMPDEST PUSH1 0x40 MLOAD DUP1 SWAP2 SUB SWAP1 REVERT JUMPDEST SELFBALANCE PUSH1 0x0 PUSH2 0x1E2 PUSH2 0x2B5 JUMP JUMPDEST SWAP1 POP PUSH1 0x0 PUSH2 0x1F0 DUP3 DUP5 PUSH2 0x127D JUMP JUMPDEST SWAP1 POP PUSH1 0x0 DUP2 GT PUSH2 0x242 JUMPI PUSH1 0x40 MLOAD PUSH3 0x461BCD PUSH1 0xE5 SHL DUP2 MSTORE PUSH1 0x20 PUSH1 0x4 DUP3 ADD DUP2 SWAP1 MSTORE PUSH1 0x24 DUP3 ADD MSTORE PUSH32 0x4E6F2072656D61696E696E672062616C616E636520746F207769746864726177 PUSH1 0x44 DUP3 ADD MSTORE PUSH1 0x64 ADD PUSH2 0x1CE JUMP JUMPDEST PUSH1 0x4 SLOAD PUSH1 0x40 MLOAD PUSH1 0x1 PUSH1 0x1 PUSH1 0xA0 SHL SUB SWAP1 SWAP2 AND SWAP1 DUP3 ISZERO PUSH2 0x8FC MUL SWAP1 DUP4 SWAP1 PUSH1 0x0 DUP2 DUP2 DUP2 DUP6 DUP9 DUP9 CALL SWAP4 POP POP POP POP ISZERO DUP1 ISZERO PUSH2 0x27C JUMPI RETURNDATASIZE PUSH1 0x0 DUP1 RETURNDATACOPY RETURNDATASIZE PUSH1 0x0 REVERT JUMPDEST POP PUSH1 0x40 MLOAD DUP2 DUP2 MSTORE PUSH32 0xA20809E697380EAEA0FD13BF4D14B00E2EF29559EF361501189D3BE2E9B0EC85 SWAP1 PUSH1 0x20 ADD PUSH1 0x40 MLOAD DUP1 SWAP2 SUB SWAP1 LOG1 POP POP POP JUMP JUMPDEST PUSH1 0x0 DUP1 DUP1 JUMPDEST PUSH1 0x40 MLOAD PUSH4 0x6F59EC4B PUSH1 0xE1 SHL DUP2 MSTORE PUSH1 0x0 PUSH1 0x4 DUP3 ADD MSTORE PUSH20 0x0 SWAP1 PUSH4 0xDEB3D896 SWAP1 PUSH1 0x24 ADD PUSH1 0x20 PUSH1 0x40 MLOAD DUP1 DUP4 SUB DUP2 DUP7 GAS DELEGATECALL ISZERO DUP1 ISZERO PUSH2 0x30A JUMPI RETURNDATASIZE PUSH1 0x0 DUP1 RETURNDATACOPY RETURNDATASIZE PUSH1 0x0 REVERT JUMPDEST POP POP POP POP PUSH1 0x40 MLOAD RETURNDATASIZE PUSH1 0x1F NOT PUSH1 0x1F DUP3 ADD AND DUP3 ADD DUP1 PUSH1 0x40 MSTORE POP DUP2 ADD SWAP1 PUSH2 0x32E SWAP2 SWAP1 PUSH2 0x1290 JUMP JUMPDEST DUP2 LT ISZERO PUSH2 0x459 JUMPI PUSH1 0x40 MLOAD PUSH4 0x68D54F3F PUSH1 0xE1 SHL DUP2 MSTORE PUSH1 0x0 PUSH1 0x4 DUP3 ADD DUP2 SWAP1 MSTORE PUSH1 0x24 DUP3 ADD DUP4 SWAP1 MSTORE SWAP1 PUSH20 0x0 SWAP1 PUSH4 0xD1AA9E7E SWAP1 PUSH1 0x44 ADD PUSH1 0x20 PUSH1 0x40 MLOAD DUP1 DUP4 SUB DUP2 DUP7 GAS DELEGATECALL ISZERO DUP1 ISZERO PUSH2 0x38F JUMPI RETURNDATASIZE PUSH1 0x0 DUP1 RETURNDATACOPY RETURNDATASIZE PUSH1 0x0 REVERT JUMPDEST POP POP POP POP PUSH1 0x40 MLOAD RETURNDATASIZE PUSH1 0x1F NOT PUSH1 0x1F DUP3 ADD AND DUP3 ADD DUP1 PUSH1 0x40 MSTORE POP DUP2 ADD SWAP1 PUSH2 0x3B3 SWAP2 SWAP1 PUSH2 0x12A9 JUMP JUMPDEST PUSH1 0x40 MLOAD PUSH4 0x732A2CCF PUSH1 0xE0 SHL DUP2 MSTORE PUSH1 0x0 PUSH1 0x4 DUP3 ADD MSTORE PUSH1 0x1 PUSH1 0x1 PUSH1 0xA0 SHL SUB DUP3 AND PUSH1 0x24 DUP3 ADD MSTORE SWAP1 SWAP2 POP PUSH20 0x0 SWAP1 PUSH4 0x732A2CCF SWAP1 PUSH1 0x44 ADD PUSH1 0x20 PUSH1 0x40 MLOAD DUP1 DUP4 SUB DUP2 DUP7 GAS DELEGATECALL ISZERO DUP1 ISZERO PUSH2 0x415 JUMPI RETURNDATASIZE PUSH1 0x0 DUP1 RETURNDATACOPY RETURNDATASIZE PUSH1 0x0 REVERT JUMPDEST POP POP POP POP PUSH1 0x40 MLOAD RETURNDATASIZE PUSH1 0x1F NOT PUSH1 0x1F DUP3 ADD AND DUP3 ADD DUP1 PUSH1 0x40 MSTORE POP DUP2 ADD SWAP1 PUSH2 0x439 SWAP2 SWAP1 PUSH2 0x1290 JUMP JUMPDEST PUSH2 0x443 SWAP1 DUP5 PUSH2 0x12C6 JUMP JUMPDEST SWAP3 POP POP DUP1 DUP1 PUSH2 0x451 SWAP1 PUSH2 0x12D9 JUMP JUMPDEST SWAP2 POP POP PUSH2 0x2BA JUMP JUMPDEST POP SWAP2 SWAP1 POP JUMP JUMPDEST PUSH1 0x4 SLOAD PUSH1 0x1 PUSH1 0x1 PUSH1 0xA0 SHL SUB AND CALLER EQ PUSH2 0x489 JUMPI PUSH1 0x40 MLOAD PUSH3 0x461BCD PUSH1 0xE5 SHL DUP2 MSTORE PUSH1 0x4 ADD PUSH2 0x1CE SWAP1 PUSH2 0x1226 JUMP JUMPDEST PUSH1 0x5 SSTORE JUMP JUMPDEST PUSH1 0x4 SLOAD PUSH1 0x1 PUSH1 0x1 PUSH1 0xA0 SHL SUB AND CALLER EQ PUSH2 0x4B8 JUMPI PUSH1 0x40 MLOAD PUSH3 0x461BCD PUSH1 0xE5 SHL DUP2 MSTORE PUSH1 0x4 ADD PUSH2 0x1CE SWAP1 PUSH2 0x1226 JUMP JUMPDEST SELFBALANCE PUSH1 0x0 PUSH2 0x4C3 PUSH2 0x2B5 JUMP JUMPDEST SWAP1 POP PUSH1 0x0 PUSH2 0x4D1 DUP3 DUP5 PUSH2 0x127D JUMP JUMPDEST SWAP1 POP DUP1 DUP5 LT PUSH2 0x522 JUMPI PUSH1 0x40 MLOAD PUSH3 0x461BCD PUSH1 0xE5 SHL DUP2 MSTORE PUSH1 0x20 PUSH1 0x4 DUP3 ADD MSTORE PUSH1 0x1C PUSH1 0x24 DUP3 ADD MSTORE PUSH32 0x4E6F7420656E6F7567682066756E647320746F20776974686472617700000000 PUSH1 0x44 DUP3 ADD MSTORE PUSH1 0x64 ADD PUSH2 0x1CE JUMP JUMPDEST PUSH1 0x4 SLOAD PUSH1 0x40 MLOAD PUSH1 0x1 PUSH1 0x1 PUSH1 0xA0 SHL SUB SWAP1 SWAP2 AND SWAP1 DUP6 ISZERO PUSH2 0x8FC MUL SWAP1 DUP7 SWAP1 PUSH1 0x0 DUP2 DUP2 DUP2 DUP6 DUP9 DUP9 CALL SWAP4 POP POP POP POP ISZERO DUP1 ISZERO PUSH2 0x55C JUMPI RETURNDATASIZE PUSH1 0x0 DUP1 RETURNDATACOPY RETURNDATASIZE PUSH1 0x0 REVERT JUMPDEST POP PUSH1 0x40 MLOAD DUP5 DUP2 MSTORE PUSH32 0xA20809E697380EAEA0FD13BF4D14B00E2EF29559EF361501189D3BE2E9B0EC85 SWAP1 PUSH1 0x20 ADD PUSH1 0x40 MLOAD DUP1 SWAP2 SUB SWAP1 LOG1 POP POP POP POP JUMP JUMPDEST PUSH1 0x0 DUP2 GT PUSH2 0x5D7 JUMPI PUSH1 0x40 MLOAD PUSH3 0x461BCD PUSH1 0xE5 SHL DUP2 MSTORE PUSH1 0x20 PUSH1 0x4 DUP3 ADD MSTORE PUSH1 0xE PUSH1 0x24 DUP3 ADD MSTORE PUSH14 0x125B9D985B1A5908185B5BDD5B9D PUSH1 0x92 SHL PUSH1 0x44 DUP3 ADD MSTORE PUSH1 0x64 ADD PUSH2 0x1CE JUMP JUMPDEST PUSH1 0x40 MLOAD PUSH4 0x732A2CCF PUSH1 0xE0 SHL DUP2 MSTORE PUSH1 0x0 PUSH1 0x4 DUP3 ADD DUP2 SWAP1 MSTORE CALLER PUSH1 0x24 DUP4 ADD MSTORE SWAP1 PUSH20 0x0 SWAP1 PUSH4 0x732A2CCF SWAP1 PUSH1 0x44 ADD PUSH1 0x20 PUSH1 0x40 MLOAD DUP1 DUP4 SUB DUP2 DUP7 GAS DELEGATECALL ISZERO DUP1 ISZERO PUSH2 0x630 JUMPI RETURNDATASIZE PUSH1 0x0 DUP1 RETURNDATACOPY RETURNDATASIZE PUSH1 0x0 REVERT JUMPDEST POP POP POP POP PUSH1 0x40 MLOAD RETURNDATASIZE PUSH1 0x1F NOT PUSH1 0x1F DUP3 ADD AND DUP3 ADD DUP1 PUSH1 0x40 MSTORE POP DUP2 ADD SWAP1 PUSH2 0x654 SWAP2 SWAP1 PUSH2 0x1290 JUMP JUMPDEST PUSH1 0x40 MLOAD PUSH4 0x732A2CCF PUSH1 0xE0 SHL DUP2 MSTORE PUSH1 0x0 PUSH1 0x4 DUP3 ADD DUP2 SWAP1 MSTORE PUSH1 0x1 PUSH1 0x1 PUSH1 0xA0 SHL SUB DUP7 AND PUSH1 0x24 DUP4 ADD MSTORE SWAP2 SWAP3 POP PUSH20 0x0 SWAP1 PUSH4 0x732A2CCF SWAP1 PUSH1 0x44 ADD PUSH1 0x20 PUSH1 0x40 MLOAD DUP1 DUP4 SUB DUP2 DUP7 GAS DELEGATECALL ISZERO DUP1 ISZERO PUSH2 0x6B8 JUMPI RETURNDATASIZE PUSH1 0x0 DUP1 RETURNDATACOPY RETURNDATASIZE PUSH1 0x0 REVERT JUMPDEST POP POP POP POP PUSH1 0x40 MLOAD RETURNDATASIZE PUSH1 0x1F NOT PUSH1 0x1F DUP3 ADD AND DUP3 ADD DUP1 PUSH1 0x40 MSTORE POP DUP2 ADD SWAP1 PUSH2 0x6DC SWAP2 SWAP1 PUSH2 0x1290 JUMP JUMPDEST SWAP1 POP DUP3 DUP3 LT ISZERO PUSH2 0x6FE JUMPI PUSH1 0x40 MLOAD PUSH3 0x461BCD PUSH1 0xE5 SHL DUP2 MSTORE PUSH1 0x4 ADD PUSH2 0x1CE SWAP1 PUSH2 0x12F2 JUMP JUMPDEST PUSH20 0x0 PUSH4 0xBC2B405C PUSH1 0x0 CALLER PUSH2 0x725 DUP8 DUP8 PUSH2 0x127D JUMP JUMPDEST PUSH1 0x40 MLOAD DUP5 PUSH4 0xFFFFFFFF AND PUSH1 0xE0 SHL DUP2 MSTORE PUSH1 0x4 ADD PUSH2 0x743 SWAP4 SWAP3 SWAP2 SWAP1 PUSH2 0x1320 JUMP JUMPDEST PUSH1 0x0 PUSH1 0x40 MLOAD DUP1 DUP4 SUB DUP2 DUP7 DUP1 EXTCODESIZE ISZERO DUP1 ISZERO PUSH2 0x75B JUMPI PUSH1 0x0 DUP1 REVERT JUMPDEST POP GAS DELEGATECALL ISZERO DUP1 ISZERO PUSH2 0x76F JUMPI RETURNDATASIZE PUSH1 0x0 DUP1 RETURNDATACOPY RETURNDATASIZE PUSH1 0x0 REVERT JUMPDEST POP PUSH20 0x0 SWAP3 POP PUSH4 0xBC2B405C SWAP2 POP PUSH1 0x0 SWAP1 POP DUP7 PUSH2 0x79D DUP8 DUP7 PUSH2 0x12C6 JUMP JUMPDEST PUSH1 0x40 MLOAD DUP5 PUSH4 0xFFFFFFFF AND PUSH1 0xE0 SHL DUP2 MSTORE PUSH1 0x4 ADD PUSH2 0x7BB SWAP4 SWAP3 SWAP2 SWAP1 PUSH2 0x1320 JUMP JUMPDEST PUSH1 0x0 PUSH1 0x40 MLOAD DUP1 DUP4 SUB DUP2 DUP7 DUP1 EXTCODESIZE ISZERO DUP1 ISZERO PUSH2 0x7D3 JUMPI PUSH1 0x0 DUP1 REVERT JUMPDEST POP GAS DELEGATECALL ISZERO DUP1 ISZERO PUSH2 0x7E7 JUMPI RETURNDATASIZE PUSH1 0x0 DUP1 RETURNDATACOPY RETURNDATASIZE PUSH1 0x0 REVERT JUMPDEST POP POP PUSH1 0x40 MLOAD DUP6 DUP2 MSTORE PUSH1 0x1 PUSH1 0x1 PUSH1 0xA0 SHL SUB DUP8 AND SWAP3 POP CALLER SWAP2 POP PUSH32 0xD69BE2AD0DF9902412768A47559F760396739FE2CCB5C9EBC1E575BDCE44C69A SWAP1 PUSH1 0x20 ADD PUSH1 0x40 MLOAD DUP1 SWAP2 SUB SWAP1 LOG3 POP POP POP POP JUMP JUMPDEST PUSH1 0x40 MLOAD PUSH4 0x732A2CCF PUSH1 0xE0 SHL DUP2 MSTORE PUSH1 0x0 PUSH1 0x4 DUP3 ADD DUP2 SWAP1 MSTORE PUSH1 0x1 PUSH1 0x1 PUSH1 0xA0 SHL SUB DUP4 AND PUSH1 0x24 DUP4 ADD MSTORE SWAP1 PUSH20 0x0 SWAP1 PUSH4 0x732A2CCF SWAP1 PUSH1 0x44 ADD PUSH1 0x20 PUSH1 0x40 MLOAD DUP1 DUP4 SUB DUP2 DUP7 GAS DELEGATECALL ISZERO DUP1 ISZERO PUSH2 0x893 JUMPI RETURNDATASIZE PUSH1 0x0 DUP1 RETURNDATACOPY RETURNDATASIZE PUSH1 0x0 REVERT JUMPDEST POP POP POP POP PUSH1 0x40 MLOAD RETURNDATASIZE PUSH1 0x1F NOT PUSH1 0x1F DUP3 ADD AND DUP3 ADD DUP1 PUSH1 0x40 MSTORE POP DUP2 ADD SWAP1 PUSH2 0x8B7 SWAP2 SWAP1 PUSH2 0x1290 JUMP JUMPDEST SWAP3 SWAP2 POP POP JUMP JUMPDEST PUSH1 0x40 MLOAD PUSH4 0x732A2CCF PUSH1 0xE0 SHL DUP2 MSTORE PUSH1 0x0 PUSH1 0x4 DUP3 ADD DUP2 SWAP1 MSTORE CALLER PUSH1 0x24 DUP4 ADD MSTORE SWAP1 PUSH20 0x0 SWAP1 PUSH4 0x732A2CCF SWAP1 PUSH1 0x44 ADD PUSH1 0x20 PUSH1 0x40 MLOAD DUP1 DUP4 SUB DUP2 DUP7 GAS DELEGATECALL ISZERO DUP1 ISZERO PUSH2 0x916 JUMPI RETURNDATASIZE PUSH1 0x0 DUP1 RETURNDATACOPY RETURNDATASIZE PUSH1 0x0 REVERT JUMPDEST POP POP POP POP PUSH1 0x40 MLOAD RETURNDATASIZE PUSH1 0x1F NOT PUSH1 0x1F DUP3 ADD AND DUP3 ADD DUP1 PUSH1 0x40 MSTORE POP DUP2 ADD SWAP1 PUSH2 0x93A SWAP2 SWAP1 PUSH2 0x1290 JUMP JUMPDEST SWAP1 POP PUSH1 0x0 DUP2 GT PUSH2 0x985 JUMPI PUSH1 0x40 MLOAD PUSH3 0x461BCD PUSH1 0xE5 SHL DUP2 MSTORE PUSH1 0x20 PUSH1 0x4 DUP3 ADD MSTORE PUSH1 0x16 PUSH1 0x24 DUP3 ADD MSTORE PUSH22 0x4E6F2062616C616E636520746F207769746864726177 PUSH1 0x50 SHL PUSH1 0x44 DUP3 ADD MSTORE PUSH1 0x64 ADD PUSH2 0x1CE JUMP JUMPDEST PUSH1 0x40 MLOAD PUSH4 0x2F0AD017 PUSH1 0xE2 SHL DUP2 MSTORE PUSH20 0x0 SWAP1 PUSH4 0xBC2B405C SWAP1 PUSH2 0x9C1 SWAP1 PUSH1 0x0 SWAP1 CALLER SWAP1 DUP3 SWAP1 PUSH1 0x4 ADD PUSH2 0x1320 JUMP JUMPDEST PUSH1 0x0 PUSH1 0x40 MLOAD DUP1 DUP4 SUB DUP2 DUP7 DUP1 EXTCODESIZE ISZERO DUP1 ISZERO PUSH2 0x9D9 JUMPI PUSH1 0x0 DUP1 REVERT JUMPDEST POP GAS DELEGATECALL ISZERO DUP1 ISZERO PUSH2 0x9ED JUMPI RETURNDATASIZE PUSH1 0x0 DUP1 RETURNDATACOPY RETURNDATASIZE PUSH1 0x0 REVERT JUMPDEST POP POP PUSH1 0x40 MLOAD CALLER SWAP3 POP DUP4 ISZERO PUSH2 0x8FC MUL SWAP2 POP DUP4 SWAP1 PUSH1 0x0 DUP2 DUP2 DUP2 DUP6 DUP9 DUP9 CALL SWAP4 POP POP POP POP ISZERO DUP1 ISZERO PUSH2 0xA1E JUMPI RETURNDATASIZE PUSH1 0x0 DUP1 RETURNDATACOPY RETURNDATASIZE PUSH1 0x0 REVERT JUMPDEST POP PUSH1 0x40 MLOAD DUP2 DUP2 MSTORE CALLER SWAP1 PUSH32 0x884EDAD9CE6FA2440D8A54CC123490EB96D2768479D49FF9C7366125A9424364 SWAP1 PUSH1 0x20 ADD JUMPDEST PUSH1 0x40 MLOAD DUP1 SWAP2 SUB SWAP1 LOG2 POP JUMP JUMPDEST PUSH1 0x40 MLOAD PUSH4 0x732A2CCF PUSH1 0xE0 SHL DUP2 MSTORE PUSH1 0x0 PUSH1 0x4 DUP3 ADD DUP2 SWAP1 MSTORE CALLER PUSH1 0x24 DUP4 ADD MSTORE CALLVALUE SWAP2 PUSH20 0x0 SWAP1 PUSH4 0x732A2CCF SWAP1 PUSH1 0x44 ADD PUSH1 0x20 PUSH1 0x40 MLOAD DUP1 DUP4 SUB DUP2 DUP7 GAS DELEGATECALL ISZERO DUP1 ISZERO PUSH2 0xAB2 JUMPI RETURNDATASIZE PUSH1 0x0 DUP1 RETURNDATACOPY RETURNDATASIZE PUSH1 0x0 REVERT JUMPDEST POP POP POP POP PUSH1 0x40 MLOAD RETURNDATASIZE PUSH1 0x1F NOT PUSH1 0x1F DUP3 ADD AND DUP3 ADD DUP1 PUSH1 0x40 MSTORE POP DUP2 ADD SWAP1 PUSH2 0xAD6 SWAP2 SWAP1 PUSH2 0x1290 JUMP JUMPDEST SWAP1 POP PUSH1 0x5 SLOAD DUP3 GT ISZERO PUSH2 0xB71 JUMPI PUSH1 0x5 SLOAD PUSH2 0xAEF SWAP1 DUP4 PUSH2 0x127D JUMP JUMPDEST SWAP2 POP PUSH1 0x0 PUSH20 0x0 PUSH4 0xBC2B405C SWAP1 SWAP2 CALLER PUSH1 0x5 SLOAD DUP6 PUSH2 0xB1E SWAP2 SWAP1 PUSH2 0x12C6 JUMP JUMPDEST PUSH1 0x40 MLOAD DUP5 PUSH4 0xFFFFFFFF AND PUSH1 0xE0 SHL DUP2 MSTORE PUSH1 0x4 ADD PUSH2 0xB3C SWAP4 SWAP3 SWAP2 SWAP1 PUSH2 0x1320 JUMP JUMPDEST PUSH1 0x0 PUSH1 0x40 MLOAD DUP1 DUP4 SUB DUP2 DUP7 DUP1 EXTCODESIZE ISZERO DUP1 ISZERO PUSH2 0xB54 JUMPI PUSH1 0x0 DUP1 REVERT JUMPDEST POP GAS DELEGATECALL ISZERO DUP1 ISZERO PUSH2 0xB68 JUMPI RETURNDATASIZE PUSH1 0x0 DUP1 RETURNDATACOPY RETURNDATASIZE PUSH1 0x0 REVERT JUMPDEST POP POP POP POP PUSH2 0xC0F JUMP JUMPDEST PUSH1 0x5 SLOAD DUP2 LT ISZERO PUSH2 0xB93 JUMPI PUSH1 0x40 MLOAD PUSH3 0x461BCD PUSH1 0xE5 SHL DUP2 MSTORE PUSH1 0x4 ADD PUSH2 0x1CE SWAP1 PUSH2 0x12F2 JUMP JUMPDEST PUSH1 0x0 PUSH20 0x0 PUSH4 0xBC2B405C SWAP1 SWAP2 CALLER PUSH1 0x5 SLOAD DUP6 PUSH2 0xBC0 SWAP2 SWAP1 PUSH2 0x127D JUMP JUMPDEST PUSH1 0x40 MLOAD DUP5 PUSH4 0xFFFFFFFF AND PUSH1 0xE0 SHL DUP2 MSTORE PUSH1 0x4 ADD PUSH2 0xBDE SWAP4 SWAP3 SWAP2 SWAP1 PUSH2 0x1320 JUMP JUMPDEST PUSH1 0x0 PUSH1 0x40 MLOAD DUP1 DUP4 SUB DUP2 DUP7 DUP1 EXTCODESIZE ISZERO DUP1 ISZERO PUSH2 0xBF6 JUMPI PUSH1 0x0 DUP1 REVERT JUMPDEST POP GAS DELEGATECALL ISZERO DUP1 ISZERO PUSH2 0xC0A JUMPI RETURNDATASIZE PUSH1 0x0 DUP1 RETURNDATACOPY RETURNDATASIZE PUSH1 0x0 REVERT JUMPDEST POP POP POP POP JUMPDEST PUSH1 0x5 SLOAD PUSH1 0x40 MLOAD SWAP1 DUP2 MSTORE CALLER SWAP1 PUSH32 0xD4F43975FEB89F48DD30CABBB32011045BE187D1E11C8EA9FAA43EFC35282519 SWAP1 PUSH1 0x20 ADD PUSH1 0x40 MLOAD DUP1 SWAP2 SUB SWAP1 LOG2 PUSH32 0xE33EB0896A1B189F05B8C6D69CE71E4DB20A0F91FC82AE4D6384AD76BA6E5580 DUP4 PUSH1 0x40 MLOAD PUSH2 0xC76 SWAP2 SWAP1 PUSH2 0x138F JUMP JUMPDEST PUSH1 0x40 MLOAD DUP1 SWAP2 SUB SWAP1 LOG1 PUSH1 0x0 DUP1 DUP7 PUSH1 0x1 PUSH1 0x1 PUSH1 0xA0 SHL SUB AND DUP7 DUP7 PUSH1 0x40 MLOAD PUSH2 0xC9A SWAP2 SWAP1 PUSH2 0x13A2 JUMP JUMPDEST PUSH1 0x0 PUSH1 0x40 MLOAD DUP1 DUP4 SUB DUP2 DUP6 DUP8 GAS CALL SWAP3 POP POP POP RETURNDATASIZE DUP1 PUSH1 0x0 DUP2 EQ PUSH2 0xCD7 JUMPI PUSH1 0x40 MLOAD SWAP2 POP PUSH1 0x1F NOT PUSH1 0x3F RETURNDATASIZE ADD AND DUP3 ADD PUSH1 0x40 MSTORE RETURNDATASIZE DUP3 MSTORE RETURNDATASIZE PUSH1 0x0 PUSH1 0x20 DUP5 ADD RETURNDATACOPY PUSH2 0xCDC JUMP JUMPDEST PUSH1 0x60 SWAP2 POP JUMPDEST POP SWAP2 POP SWAP2 POP DUP2 PUSH2 0xD8A JUMPI PUSH1 0x40 DUP1 MLOAD DUP1 DUP3 ADD SWAP1 SWAP2 MSTORE PUSH1 0x10 DUP2 MSTORE PUSH16 0x2737903932BB32B93A103932B0B9B7B7 PUSH1 0x81 SHL PUSH1 0x20 DUP3 ADD MSTORE DUP2 MLOAD PUSH1 0x44 GT PUSH2 0xD1C JUMPI POP PUSH1 0x4 DUP2 ADD JUMPDEST PUSH32 0x3C4B96F0117EA792D5C26CF00A23B93D220325EF34E352D05103B1971C8CB54C DUP2 PUSH1 0x40 MLOAD PUSH2 0xD4B SWAP2 SWAP1 PUSH2 0x138F JUMP JUMPDEST PUSH1 0x40 MLOAD DUP1 SWAP2 SUB SWAP1 LOG1 DUP1 PUSH1 0x40 MLOAD PUSH1 0x20 ADD PUSH2 0xD64 SWAP2 SWAP1 PUSH2 0x13BE JUMP JUMPDEST PUSH1 0x40 DUP1 MLOAD PUSH1 0x1F NOT DUP2 DUP5 SUB ADD DUP2 MSTORE SWAP1 DUP3 SWAP1 MSTORE PUSH3 0x461BCD PUSH1 0xE5 SHL DUP3 MSTORE PUSH2 0x1CE SWAP2 PUSH1 0x4 ADD PUSH2 0x138F JUMP JUMPDEST DUP7 PUSH1 0x1 PUSH1 0x1 PUSH1 0xA0 SHL SUB AND CALLER PUSH1 0x1 PUSH1 0x1 PUSH1 0xA0 SHL SUB AND PUSH32 0xAB7BCCECDDF9B5629E0D45E9FCC3C9D353AE417DDB20DD83EB7C9FE71725DE47 DUP9 DUP9 PUSH1 0x40 MLOAD PUSH2 0xDCF SWAP3 SWAP2 SWAP1 PUSH2 0x13FA JUMP JUMPDEST PUSH1 0x40 MLOAD DUP1 SWAP2 SUB SWAP1 LOG3 POP POP POP POP POP POP POP JUMP JUMPDEST PUSH1 0x40 MLOAD PUSH4 0x732A2CCF PUSH1 0xE0 SHL DUP2 MSTORE PUSH1 0x0 PUSH1 0x4 DUP3 ADD DUP2 SWAP1 MSTORE CALLER PUSH1 0x24 DUP4 ADD MSTORE SWAP1 PUSH20 0x0 SWAP1 PUSH4 0x732A2CCF SWAP1 PUSH1 0x44 ADD PUSH1 0x20 PUSH1 0x40 MLOAD DUP1 DUP4 SUB DUP2 DUP7 GAS DELEGATECALL ISZERO DUP1 ISZERO PUSH2 0xE39 JUMPI RETURNDATASIZE PUSH1 0x0 DUP1 RETURNDATACOPY RETURNDATASIZE PUSH1 0x0 REVERT JUMPDEST POP POP POP POP PUSH1 0x40 MLOAD RETURNDATASIZE PUSH1 0x1F NOT PUSH1 0x1F DUP3 ADD AND DUP3 ADD DUP1 PUSH1 0x40 MSTORE POP DUP2 ADD SWAP1 PUSH2 0xE5D SWAP2 SWAP1 PUSH2 0x1290 JUMP JUMPDEST SWAP1 POP PUSH20 0x0 PUSH4 0xBC2B405C PUSH1 0x0 CALLER PUSH2 0xE86 CALLVALUE DUP7 PUSH2 0x12C6 JUMP JUMPDEST PUSH1 0x40 MLOAD DUP5 PUSH4 0xFFFFFFFF AND PUSH1 0xE0 SHL DUP2 MSTORE PUSH1 0x4 ADD PUSH2 0xEA4 SWAP4 SWAP3 SWAP2 SWAP1 PUSH2 0x1320 JUMP JUMPDEST PUSH1 0x0 PUSH1 0x40 MLOAD DUP1 DUP4 SUB DUP2 DUP7 DUP1 EXTCODESIZE ISZERO DUP1 ISZERO PUSH2 0xEBC JUMPI PUSH1 0x0 DUP1 REVERT JUMPDEST POP GAS DELEGATECALL ISZERO DUP1 ISZERO PUSH2 0xED0 JUMPI RETURNDATASIZE PUSH1 0x0 DUP1 RETURNDATACOPY RETURNDATASIZE PUSH1 0x0 REVERT JUMPDEST POP POP PUSH1 0x40 MLOAD CALLVALUE DUP2 MSTORE CALLER SWAP3 POP PUSH32 0xE1FFFCC4923D04B559F4D29A8BFC6CDA04EB5B0D3C460751C2402C5C5CC9109C SWAP2 POP PUSH1 0x20 ADD PUSH2 0xA4D JUMP JUMPDEST PUSH1 0x0 DUP2 GT PUSH2 0xF47 JUMPI PUSH1 0x40 MLOAD PUSH3 0x461BCD PUSH1 0xE5 SHL DUP2 MSTORE PUSH1 0x20 PUSH1 0x4 DUP3 ADD MSTORE PUSH1 0xE PUSH1 0x24 DUP3 ADD MSTORE PUSH14 0x125B9D985B1A5908185B5BDD5B9D PUSH1 0x92 SHL PUSH1 0x44 DUP3 ADD MSTORE PUSH1 0x64 ADD PUSH2 0x1CE JUMP JUMPDEST PUSH1 0x40 MLOAD PUSH4 0x732A2CCF PUSH1 0xE0 SHL DUP2 MSTORE PUSH1 0x0 PUSH1 0x4 DUP3 ADD DUP2 SWAP1 MSTORE CALLER PUSH1 0x24 DUP4 ADD MSTORE SWAP1 PUSH20 0x0 SWAP1 PUSH4 0x732A2CCF SWAP1 PUSH1 0x44 ADD PUSH1 0x20 PUSH1 0x40 MLOAD DUP1 DUP4 SUB DUP2 DUP7 GAS DELEGATECALL ISZERO DUP1 ISZERO PUSH2 0xFA0 JUMPI RETURNDATASIZE PUSH1 0x0 DUP1 RETURNDATACOPY RETURNDATASIZE PUSH1 0x0 REVERT JUMPDEST POP POP POP POP PUSH1 0x40 MLOAD RETURNDATASIZE PUSH1 0x1F NOT PUSH1 0x1F DUP3 ADD AND DUP3 ADD DUP1 PUSH1 0x40 MSTORE POP DUP2 ADD SWAP1 PUSH2 0xFC4 SWAP2 SWAP1 PUSH2 0x1290 JUMP JUMPDEST SWAP1 POP DUP2 DUP2 LT ISZERO PUSH2 0xFE6 JUMPI PUSH1 0x40 MLOAD PUSH3 0x461BCD PUSH1 0xE5 SHL DUP2 MSTORE PUSH1 0x4 ADD PUSH2 0x1CE SWAP1 PUSH2 0x12F2 JUMP JUMPDEST PUSH20 0x0 PUSH4 0xBC2B405C PUSH1 0x0 CALLER PUSH2 0x100D DUP7 DUP7 PUSH2 0x127D JUMP JUMPDEST PUSH1 0x40 MLOAD DUP5 PUSH4 0xFFFFFFFF AND PUSH1 0xE0 SHL DUP2 MSTORE PUSH1 0x4 ADD PUSH2 0x102B SWAP4 SWAP3 SWAP2 SWAP1 PUSH2 0x1320 JUMP JUMPDEST PUSH1 0x0 PUSH1 0x40 MLOAD DUP1 DUP4 SUB DUP2 DUP7 DUP1 EXTCODESIZE ISZERO DUP1 ISZERO PUSH2 0x1043 JUMPI PUSH1 0x0 DUP1 REVERT JUMPDEST POP GAS DELEGATECALL ISZERO DUP1 ISZERO PUSH2 0x1057 JUMPI RETURNDATASIZE PUSH1 0x0 DUP1 RETURNDATACOPY RETURNDATASIZE PUSH1 0x0 REVERT JUMPDEST POP POP PUSH1 0x40 MLOAD CALLER SWAP3 POP DUP5 ISZERO PUSH2 0x8FC MUL SWAP2 POP DUP5 SWAP1 PUSH1 0x0 DUP2 DUP2 DUP2 DUP6 DUP9 DUP9 CALL SWAP4 POP POP POP POP ISZERO DUP1 ISZERO PUSH2 0x1088 JUMPI RETURNDATASIZE PUSH1 0x0 DUP1 RETURNDATACOPY RETURNDATASIZE PUSH1 0x0 REVERT JUMPDEST POP PUSH1 0x40 MLOAD DUP3 DUP2 MSTORE CALLER SWAP1 PUSH32 0x884EDAD9CE6FA2440D8A54CC123490EB96D2768479D49FF9C7366125A9424364 SWAP1 PUSH1 0x20 ADD PUSH1 0x40 MLOAD DUP1 SWAP2 SUB SWAP1 LOG2 POP POP JUMP JUMPDEST PUSH1 0x0 PUSH1 0x20 DUP3 DUP5 SUB SLT ISZERO PUSH2 0x10D4 JUMPI PUSH1 0x0 DUP1 REVERT JUMPDEST POP CALLDATALOAD SWAP2 SWAP1 POP JUMP JUMPDEST PUSH1 0x1 PUSH1 0x1 PUSH1 0xA0 SHL SUB DUP2 AND DUP2 EQ PUSH2 0x10F0 JUMPI PUSH1 0x0 DUP1 REVERT JUMPDEST POP JUMP JUMPDEST PUSH1 0x0 DUP1 PUSH1 0x40 DUP4 DUP6 SUB SLT ISZERO PUSH2 0x1106 JUMPI PUSH1 0x0 DUP1 REVERT JUMPDEST DUP3 CALLDATALOAD PUSH2 0x1111 DUP2 PUSH2 0x10DB JUMP JUMPDEST SWAP5 PUSH1 0x20 SWAP4 SWAP1 SWAP4 ADD CALLDATALOAD SWAP4 POP POP POP JUMP JUMPDEST PUSH1 0x0 PUSH1 0x20 DUP3 DUP5 SUB SLT ISZERO PUSH2 0x1131 JUMPI PUSH1 0x0 DUP1 REVERT JUMPDEST DUP2 CALLDATALOAD PUSH2 0x113C DUP2 PUSH2 0x10DB JUMP JUMPDEST SWAP4 SWAP3 POP POP POP JUMP JUMPDEST PUSH4 0x4E487B71 PUSH1 0xE0 SHL PUSH1 0x0 MSTORE PUSH1 0x41 PUSH1 0x4 MSTORE PUSH1 0x24 PUSH1 0x0 REVERT JUMPDEST PUSH1 0x0 DUP1 PUSH1 0x0 PUSH1 0x60 DUP5 DUP7 SUB SLT ISZERO PUSH2 0x116E JUMPI PUSH1 0x0 DUP1 REVERT JUMPDEST DUP4 CALLDATALOAD PUSH2 0x1179 DUP2 PUSH2 0x10DB JUMP JUMPDEST SWAP3 POP PUSH1 0x20 DUP5 ADD CALLDATALOAD SWAP2 POP PUSH1 0x40 DUP5 ADD CALLDATALOAD PUSH8 0xFFFFFFFFFFFFFFFF DUP1 DUP3 GT ISZERO PUSH2 0x119D JUMPI PUSH1 0x0 DUP1 REVERT JUMPDEST DUP2 DUP7 ADD SWAP2 POP DUP7 PUSH1 0x1F DUP4 ADD SLT PUSH2 0x11B1 JUMPI PUSH1 0x0 DUP1 REVERT JUMPDEST DUP2 CALLDATALOAD DUP2 DUP2 GT ISZERO PUSH2 0x11C3 JUMPI PUSH2 0x11C3 PUSH2 0x1143 JUMP JUMPDEST PUSH1 0x40 MLOAD PUSH1 0x1F DUP3 ADD PUSH1 0x1F NOT SWAP1 DUP2 AND PUSH1 0x3F ADD AND DUP2 ADD SWAP1 DUP4 DUP3 GT DUP2 DUP4 LT OR ISZERO PUSH2 0x11EB JUMPI PUSH2 0x11EB PUSH2 0x1143 JUMP JUMPDEST DUP2 PUSH1 0x40 MSTORE DUP3 DUP2 MSTORE DUP10 PUSH1 0x20 DUP5 DUP8 ADD ADD GT ISZERO PUSH2 0x1204 JUMPI PUSH1 0x0 DUP1 REVERT JUMPDEST DUP3 PUSH1 0x20 DUP7 ADD PUSH1 0x20 DUP4 ADD CALLDATACOPY PUSH1 0x0 PUSH1 0x20 DUP5 DUP4 ADD ADD MSTORE DUP1 SWAP6 POP POP POP POP POP POP SWAP3 POP SWAP3 POP SWAP3 JUMP JUMPDEST PUSH1 0x20 DUP1 DUP3 MSTORE PUSH1 0x21 SWAP1 DUP3 ADD MSTORE PUSH32 0x4F6E6C79206F776E65722063616E2063616C6C20746869732066756E6374696F PUSH1 0x40 DUP3 ADD MSTORE PUSH1 0x37 PUSH1 0xF9 SHL PUSH1 0x60 DUP3 ADD MSTORE PUSH1 0x80 ADD SWAP1 JUMP JUMPDEST PUSH4 0x4E487B71 PUSH1 0xE0 SHL PUSH1 0x0 MSTORE PUSH1 0x11 PUSH1 0x4 MSTORE PUSH1 0x24 PUSH1 0x0 REVERT JUMPDEST DUP2 DUP2 SUB DUP2 DUP2 GT ISZERO PUSH2 0x8B7 JUMPI PUSH2 0x8B7 PUSH2 0x1267 JUMP JUMPDEST PUSH1 0x0 PUSH1 0x20 DUP3 DUP5 SUB SLT ISZERO PUSH2 0x12A2 JUMPI PUSH1 0x0 DUP1 REVERT JUMPDEST POP MLOAD SWAP2 SWAP1 POP JUMP JUMPDEST PUSH1 0x0 PUSH1 0x20 DUP3 DUP5 SUB SLT ISZERO PUSH2 0x12BB JUMPI PUSH1 0x0 DUP1 REVERT JUMPDEST DUP2 MLOAD PUSH2 0x113C DUP2 PUSH2 0x10DB JUMP JUMPDEST DUP1 DUP3 ADD DUP1 DUP3 GT ISZERO PUSH2 0x8B7 JUMPI PUSH2 0x8B7 PUSH2 0x1267 JUMP JUMPDEST PUSH1 0x0 PUSH1 0x1 DUP3 ADD PUSH2 0x12EB JUMPI PUSH2 0x12EB PUSH2 0x1267 JUMP JUMPDEST POP PUSH1 0x1 ADD SWAP1 JUMP JUMPDEST PUSH1 0x20 DUP1 DUP3 MSTORE PUSH1 0x14 SWAP1 DUP3 ADD MSTORE PUSH20 0x496E73756666696369656E742062616C616E6365 PUSH1 0x60 SHL PUSH1 0x40 DUP3 ADD MSTORE PUSH1 0x60 ADD SWAP1 JUMP JUMPDEST SWAP3 DUP4 MSTORE PUSH1 0x1 PUSH1 0x1 PUSH1 0xA0 SHL SUB SWAP2 SWAP1 SWAP2 AND PUSH1 0x20 DUP4 ADD MSTORE PUSH1 0x40 DUP3 ADD MSTORE PUSH1 0x60 ADD SWAP1 JUMP JUMPDEST PUSH1 0x0 JUMPDEST DUP4 DUP2 LT ISZERO PUSH2 0x135A JUMPI DUP2 DUP2 ADD MLOAD DUP4 DUP3 ADD MSTORE PUSH1 0x20 ADD PUSH2 0x1342 JUMP JUMPDEST POP POP PUSH1 0x0 SWAP2 ADD MSTORE JUMP JUMPDEST PUSH1 0x0 DUP2 MLOAD DUP1 DUP5 MSTORE PUSH2 0x137B DUP2 PUSH1 0x20 DUP7 ADD PUSH1 0x20 DUP7 ADD PUSH2 0x133F JUMP JUMPDEST PUSH1 0x1F ADD PUSH1 0x1F NOT AND SWAP3 SWAP1 SWAP3 ADD PUSH1 0x20 ADD SWAP3 SWAP2 POP POP JUMP JUMPDEST PUSH1 0x20 DUP2 MSTORE PUSH1 0x0 PUSH2 0x113C PUSH1 0x20 DUP4 ADD DUP5 PUSH2 0x1363 JUMP JUMPDEST PUSH1 0x0 DUP3 MLOAD PUSH2 0x13B4 DUP2 DUP5 PUSH1 0x20 DUP8 ADD PUSH2 0x133F JUMP JUMPDEST SWAP2 SWAP1 SWAP2 ADD SWAP3 SWAP2 POP POP JUMP JUMPDEST PUSH20 0x2A3930B739B0B1BA34B7B7103330B4B632B21D1 PUSH1 0x65 SHL DUP2 MSTORE PUSH1 0x0 DUP3 MLOAD PUSH2 0x13ED DUP2 PUSH1 0x14 DUP6 ADD PUSH1 0x20 DUP8 ADD PUSH2 0x133F JUMP JUMPDEST SWAP2 SWAP1 SWAP2 ADD PUSH1 0x14 ADD SWAP3 SWAP2 POP POP JUMP JUMPDEST DUP3 DUP2 MSTORE PUSH1 0x40 PUSH1 0x20 DUP3 ADD MSTORE PUSH1 0x0 PUSH2 0x1413 PUSH1 0x40 DUP4 ADD DUP5 PUSH2 0x1363 JUMP JUMPDEST SWAP5 SWAP4 POP POP POP POP JUMP INVALID LOG2 PUSH5 0x6970667358 0x22 SLT KECCAK256 0x49 SWAP7 PUSH11 0x282013DD0636E9176BF78 0xF DUP13 LOG1 EXTCODEHASH 0xC5 0x22 DUP3 0xC2 0x2D MUL 0xDC LOG0 0xBD PUSH14 0x349A9A3C64736F6C634300081300 CALLER "},"methodIdentifiers":{"deposit()":"d0e30db0","getAccountBalance(address)":"93423e9c","getTotalAccountsBalance()":"597c1b23","ownerWithdraw()":"4311de8f","ownerWithdrawAmount(uint256)":"8ed8249c","setFeeAmount(uint256)":"6b392680","submitTransaction(address,uint256,bytes)":"c6427474","transferAccount(address,uint256)":"91691873","withdrawBalance(uint256)":"da76d5cd","withdrawRemainingBalance()":"b91d53c6"}},"storageLayout":{"storage":[{"astId":254,"contract":"contracts/RpcGo.sol:RpcGo","label":"accounts","offset":0,"slot":"0","type":"t_struct(Map)17_storage"},{"astId":256,"contract":"contracts/RpcGo.sol:RpcGo","label":"owner","offset":0,"slot":"4","type":"t_address"},{"astId":259,"contract":"contracts/RpcGo.sol:RpcGo","label":"feeAmount","offset":0,"slot":"5","type":"t_uint256"}],"types":{"t_address":{"encoding":"inplace","label":"address","numberOfBytes":"20"},"t_array(t_address)dyn_storage":{"base":"t_address","encoding":"dynamic_array","label":"address[]","numberOfBytes":"32"},"t_bool":{"encoding":"inplace","label":"bool","numberOfBytes":"1"},"t_mapping(t_address,t_bool)":{"encoding":"mapping","key":"t_address","label":"mapping(address => bool)","numberOfBytes":"32","value":"t_bool"},"t_mapping(t_address,t_uint256)":{"encoding":"mapping","key":"t_address","label":"mapping(address => uint256)","numberOfBytes":"32","value":"t_uint256"},"t_struct(Map)17_storage":{"encoding":"inplace","label":"struct IterableMapping.Map","members":[{"astId":4,"contract":"contracts/RpcGo.sol:RpcGo","label":"keys","offset":0,"slot":"0","type":"t_array(t_address)dyn_storage"},{"astId":8,"contract":"contracts/RpcGo.sol:RpcGo","label":"values","offset":0,"slot":"1","type":"t_mapping(t_address,t_uint256)"},{"astId":12,"contract":"contracts/RpcGo.sol:RpcGo","label":"indexOf","offset":0,"slot":"2","type":"t_mapping(t_address,t_uint256)"},{"astId":16,"contract":"contracts/RpcGo.sol:RpcGo","label":"inserted","offset":0,"slot":"3","type":"t_mapping(t_address,t_bool)"}],"numberOfBytes":"128"},"t_uint256":{"encoding":"inplace","label":"uint256","numberOfBytes":"32"}}}}}}