{"contracts/RpcGo.sol":{"RpcGo":{"abi":[{"inputs":[],"stateMutability":"nonpayable","type":"constructor"},{"anonymous":false,"inputs":[{"indexed":true,"internalType":"address","name":"from","type":"address"},{"indexed":true,"internalType":"address","name":"to","type":"address"},{"indexed":false,"internalType":"uint256","name":"value","type":"uint256"},{"indexed":false,"internalType":"bytes","name":"data","type":"bytes"}],"name":"ExecuteTransaction","type":"event"},{"anonymous":false,"inputs":[{"indexed":false,"internalType":"bytes","name":"data","type":"bytes"}],"name":"LogData","type":"event"},{"anonymous":false,"inputs":[{"indexed":false,"internalType":"uint256","name":"amount","type":"uint256"}],"name":"OwnerWithdraw","type":"event"},{"anonymous":false,"inputs":[{"indexed":false,"internalType":"string","name":"reason","type":"string"}],"name":"RevertReason","type":"event"},{"anonymous":false,"inputs":[{"indexed":true,"internalType":"address","name":"from","type":"address"},{"indexed":true,"internalType":"address","name":"to","type":"address"},{"indexed":false,"internalType":"uint256","name":"amount","type":"uint256"}],"name":"TransferAccount","type":"event"},{"anonymous":false,"inputs":[{"indexed":true,"internalType":"address","name":"account","type":"address"},{"indexed":false,"internalType":"uint256","name":"amount","type":"uint256"}],"name":"Withdraw","type":"event"},{"inputs":[],"name":"deposit","outputs":[],"stateMutability":"payable","type":"function"},{"inputs":[{"internalType":"address","name":"account","type":"address"}],"name":"getAccountBalance","outputs":[{"internalType":"uint256","name":"","type":"uint256"}],"stateMutability":"view","type":"function"},{"inputs":[],"name":"getTotalAccountsBalance","outputs":[{"internalType":"uint256","name":"","type":"uint256"}],"stateMutability":"view","type":"function"},{"inputs":[],"name":"ownerWithdraw","outputs":[],"stateMutability":"nonpayable","type":"function"},{"inputs":[{"internalType":"uint256","name":"amount","type":"uint256"}],"name":"ownerWithdrawAmount","outputs":[],"stateMutability":"nonpayable","type":"function"},{"inputs":[{"internalType":"address","name":"to","type":"address"},{"internalType":"uint256","name":"value","type":"uint256"},{"internalType":"bytes","name":"data","type":"bytes"}],"name":"submitTransaction","outputs":[],"stateMutability":"payable","type":"function"},{"inputs":[{"internalType":"address","name":"to","type":"address"},{"internalType":"uint256","name":"amount","type":"uint256"}],"name":"transferAccount","outputs":[],"stateMutability":"nonpayable","type":"function"},{"inputs":[{"internalType":"uint256","name":"amount","type":"uint256"}],"name":"withdrawBalance","outputs":[],"stateMutability":"nonpayable","type":"function"},{"inputs":[],"name":"withdrawRemainingBalance","outputs":[],"stateMutability":"nonpayable","type":"function"}],"evm":{"bytecode":{"linkReferences":{"contracts/RpcGo.sol":{"IterableMapping":[{"length":20,"start":737},{"length":20,"start":870},{"length":20,"start":1004},{"length":20,"start":1496},{"length":20,"start":1632},{"length":20,"start":1762},{"length":20,"start":1876},{"length":20,"start":2107},{"length":20,"start":2238},{"length":20,"start":2422},{"length":20,"start":2649},{"length":20,"start":2774},{"length":20,"start":2936},{"length":20,"start":3496},{"length":20,"start":3594},{"length":20,"start":3808},{"length":20,"start":3938}]}},"object":"6080604052655af3107a400060055534801561001a57600080fd5b50600480546001600160a01b0319163317905561138f8061003c6000396000f3fe6080604052600436106100865760003560e01c806393423e9c1161005957806393423e9c14610109578063b91d53c614610129578063c64274741461013e578063d0e30db014610151578063da76d5cd1461015957600080fd5b80634311de8f1461008b578063597c1b23146100a25780638ed8249c146100c957806391691873146100e9575b600080fd5b34801561009757600080fd5b506100a0610179565b005b3480156100ae57600080fd5b506100b761028a565b60405190815260200160405180910390f35b3480156100d557600080fd5b506100a06100e4366004611000565b610434565b3480156100f557600080fd5b506100a0610104366004611031565b61053c565b34801561011557600080fd5b506100b761012436600461105d565b6107d7565b34801561013557600080fd5b506100a0610863565b6100a061014c366004611097565b6109fd565b6100a0610d4d565b34801561016557600080fd5b506100a0610174366004611000565b610e44565b6004546001600160a01b031633146101ac5760405162461bcd60e51b81526004016101a390611164565b60405180910390fd5b4760006101b761028a565b905060006101c582846111bb565b9050600081116102175760405162461bcd60e51b815260206004820181905260248201527f4e6f2072656d61696e696e672062616c616e636520746f20776974686472617760448201526064016101a3565b6004546040516001600160a01b039091169082156108fc029083906000818181858888f19350505050158015610251573d6000803e3d6000fd5b506040518181527fa20809e697380eaea0fd13bf4d14b00e2ef29559ef361501189d3be2e9b0ec859060200160405180910390a1505050565b600080805b604051636f59ec4b60e11b81526000600482015273__$28d2455bd764ba806e1ab599ce1a0785f1$__9063deb3d89690602401602060405180830381865af41580156102df573d6000803e3d6000fd5b505050506040513d601f19601f8201168201806040525081019061030391906111ce565b81101561042e576040516368d54f3f60e11b8152600060048201819052602482018390529073__$28d2455bd764ba806e1ab599ce1a0785f1$__9063d1aa9e7e90604401602060405180830381865af4158015610364573d6000803e3d6000fd5b505050506040513d601f19601f8201168201806040525081019061038891906111e7565b60405163732a2ccf60e01b8152600060048201526001600160a01b038216602482015290915073__$28d2455bd764ba806e1ab599ce1a0785f1$__9063732a2ccf90604401602060405180830381865af41580156103ea573d6000803e3d6000fd5b505050506040513d601f19601f8201168201806040525081019061040e91906111ce565b6104189084611204565b925050808061042690611217565b91505061028f565b50919050565b6004546001600160a01b0316331461045e5760405162461bcd60e51b81526004016101a390611164565b47600061046961028a565b9050600061047782846111bb565b90508084106104c85760405162461bcd60e51b815260206004820152601c60248201527f4e6f7420656e6f7567682066756e647320746f2077697468647261770000000060448201526064016101a3565b6004546040516001600160a01b039091169085156108fc029086906000818181858888f19350505050158015610502573d6000803e3d6000fd5b506040518481527fa20809e697380eaea0fd13bf4d14b00e2ef29559ef361501189d3be2e9b0ec859060200160405180910390a150505050565b6000811161057d5760405162461bcd60e51b815260206004820152600e60248201526d125b9d985b1a5908185b5bdd5b9d60921b60448201526064016101a3565b60405163732a2ccf60e01b81526000600482018190523360248301529073__$28d2455bd764ba806e1ab599ce1a0785f1$__9063732a2ccf90604401602060405180830381865af41580156105d6573d6000803e3d6000fd5b505050506040513d601f19601f820116820180604052508101906105fa91906111ce565b60405163732a2ccf60e01b81526000600482018190526001600160a01b038616602483015291925073__$28d2455bd764ba806e1ab599ce1a0785f1$__9063732a2ccf90604401602060405180830381865af415801561065e573d6000803e3d6000fd5b505050506040513d601f19601f8201168201806040525081019061068291906111ce565b9050828210156106a45760405162461bcd60e51b81526004016101a390611230565b73__$28d2455bd764ba806e1ab599ce1a0785f1$__63bc2b405c6000336106cb87876111bb565b6040518463ffffffff1660e01b81526004016106e99392919061125e565b60006040518083038186803b15801561070157600080fd5b505af4158015610715573d6000803e3d6000fd5b5073__$28d2455bd764ba806e1ab599ce1a0785f1$__925063bc2b405c915060009050866107438786611204565b6040518463ffffffff1660e01b81526004016107619392919061125e565b60006040518083038186803b15801561077957600080fd5b505af415801561078d573d6000803e3d6000fd5b50506040518581526001600160a01b03871692503391507fd69be2ad0df9902412768a47559f760396739fe2ccb5c9ebc1e575bdce44c69a9060200160405180910390a350505050565b60405163732a2ccf60e01b81526000600482018190526001600160a01b03831660248301529073__$28d2455bd764ba806e1ab599ce1a0785f1$__9063732a2ccf90604401602060405180830381865af4158015610839573d6000803e3d6000fd5b505050506040513d601f19601f8201168201806040525081019061085d91906111ce565b92915050565b60405163732a2ccf60e01b81526000600482018190523360248301529073__$28d2455bd764ba806e1ab599ce1a0785f1$__9063732a2ccf90604401602060405180830381865af41580156108bc573d6000803e3d6000fd5b505050506040513d601f19601f820116820180604052508101906108e091906111ce565b90506000811161092b5760405162461bcd60e51b81526020600482015260166024820152754e6f2062616c616e636520746f20776974686472617760501b60448201526064016101a3565b604051632f0ad01760e21b815273__$28d2455bd764ba806e1ab599ce1a0785f1$__9063bc2b405c90610967906000903390829060040161125e565b60006040518083038186803b15801561097f57600080fd5b505af4158015610993573d6000803e3d6000fd5b505060405133925083156108fc02915083906000818181858888f193505050501580156109c4573d6000803e3d6000fd5b5060405181815233907f884edad9ce6fa2440d8a54cc123490eb96d2768479d49ff9c7366125a94243649060200160405180910390a250565b60405163732a2ccf60e01b8152600060048201819052336024830152349173__$28d2455bd764ba806e1ab599ce1a0785f1$__9063732a2ccf90604401602060405180830381865af4158015610a57573d6000803e3d6000fd5b505050506040513d601f19601f82011682018060405250810190610a7b91906111ce565b9050600554821115610b1657600554610a9490836111bb565b9150600073__$28d2455bd764ba806e1ab599ce1a0785f1$__63bc2b405c90913360055485610ac39190611204565b6040518463ffffffff1660e01b8152600401610ae19392919061125e565b60006040518083038186803b158015610af957600080fd5b505af4158015610b0d573d6000803e3d6000fd5b50505050610bb4565b600554811015610b385760405162461bcd60e51b81526004016101a390611230565b600073__$28d2455bd764ba806e1ab599ce1a0785f1$__63bc2b405c90913360055485610b6591906111bb565b6040518463ffffffff1660e01b8152600401610b839392919061125e565b60006040518083038186803b158015610b9b57600080fd5b505af4158015610baf573d6000803e3d6000fd5b505050505b7fe33eb0896a1b189f05b8c6d69ce71e4db20a0f91fc82ae4d6384ad76ba6e558083604051610be391906112cd565b60405180910390a1600080866001600160a01b03168686604051610c0791906112e0565b60006040518083038185875af1925050503d8060008114610c44576040519150601f19603f3d011682016040523d82523d6000602084013e610c49565b606091505b509150915081610cf75760408051808201909152601081526f2737903932bb32b93a103932b0b9b7b760811b60208201528151604411610c895750600481015b7f3c4b96f0117ea792d5c26cf00a23b93d220325ef34e352d05103b1971c8cb54c81604051610cb891906112cd565b60405180910390a180604051602001610cd191906112fc565b60408051601f198184030181529082905262461bcd60e51b82526101a3916004016112cd565b866001600160a01b0316336001600160a01b03167fab7bccecddf9b5629e0d45e9fcc3c9d353ae417ddb20dd83eb7c9fe71725de478888604051610d3c929190611338565b60405180910390a350505050505050565b60405163732a2ccf60e01b81526000600482018190523360248301529073__$28d2455bd764ba806e1ab599ce1a0785f1$__9063732a2ccf90604401602060405180830381865af4158015610da6573d6000803e3d6000fd5b505050506040513d601f19601f82011682018060405250810190610dca91906111ce565b905073__$28d2455bd764ba806e1ab599ce1a0785f1$__63bc2b405c600033610df33486611204565b6040518463ffffffff1660e01b8152600401610e119392919061125e565b60006040518083038186803b158015610e2957600080fd5b505af4158015610e3d573d6000803e3d6000fd5b5050505050565b60008111610e855760405162461bcd60e51b815260206004820152600e60248201526d125b9d985b1a5908185b5bdd5b9d60921b60448201526064016101a3565b60405163732a2ccf60e01b81526000600482018190523360248301529073__$28d2455bd764ba806e1ab599ce1a0785f1$__9063732a2ccf90604401602060405180830381865af4158015610ede573d6000803e3d6000fd5b505050506040513d601f19601f82011682018060405250810190610f0291906111ce565b905081811015610f245760405162461bcd60e51b81526004016101a390611230565b73__$28d2455bd764ba806e1ab599ce1a0785f1$__63bc2b405c600033610f4b86866111bb565b6040518463ffffffff1660e01b8152600401610f699392919061125e565b60006040518083038186803b158015610f8157600080fd5b505af4158015610f95573d6000803e3d6000fd5b505060405133925084156108fc02915084906000818181858888f19350505050158015610fc6573d6000803e3d6000fd5b5060405182815233907f884edad9ce6fa2440d8a54cc123490eb96d2768479d49ff9c7366125a94243649060200160405180910390a25050565b60006020828403121561101257600080fd5b5035919050565b6001600160a01b038116811461102e57600080fd5b50565b6000806040838503121561104457600080fd5b823561104f81611019565b946020939093013593505050565b60006020828403121561106f57600080fd5b813561107a81611019565b9392505050565b634e487b7160e01b600052604160045260246000fd5b6000806000606084860312156110ac57600080fd5b83356110b781611019565b925060208401359150604084013567ffffffffffffffff808211156110db57600080fd5b818601915086601f8301126110ef57600080fd5b81358181111561110157611101611081565b604051601f8201601f19908116603f0116810190838211818310171561112957611129611081565b8160405282815289602084870101111561114257600080fd5b8260208601602083013760006020848301015280955050505050509250925092565b60208082526021908201527f4f6e6c79206f776e65722063616e2063616c6c20746869732066756e6374696f6040820152603760f91b606082015260800190565b634e487b7160e01b600052601160045260246000fd5b8181038181111561085d5761085d6111a5565b6000602082840312156111e057600080fd5b5051919050565b6000602082840312156111f957600080fd5b815161107a81611019565b8082018082111561085d5761085d6111a5565b600060018201611229576112296111a5565b5060010190565b602080825260149082015273496e73756666696369656e742062616c616e636560601b604082015260600190565b9283526001600160a01b03919091166020830152604082015260600190565b60005b83811015611298578181015183820152602001611280565b50506000910152565b600081518084526112b981602086016020860161127d565b601f01601f19169290920160200192915050565b60208152600061107a60208301846112a1565b600082516112f281846020870161127d565b9190910192915050565b7302a3930b739b0b1ba34b7b7103330b4b632b21d160651b81526000825161132b81601485016020870161127d565b9190910160140192915050565b82815260406020820152600061135160408301846112a1565b94935050505056fea2646970667358221220332e5dbfac2b237eba13dcbe1e1883fd9cd721756b3948414f4641db1a9df69864736f6c63430008130033","opcodes":"PUSH1 0x80 PUSH1 0x40 MSTORE PUSH6 0x5AF3107A4000 PUSH1 0x5 SSTORE CALLVALUE DUP1 ISZERO PUSH2 0x1A JUMPI PUSH1 0x0 DUP1 REVERT JUMPDEST POP PUSH1 0x4 DUP1 SLOAD PUSH1 0x1 PUSH1 0x1 PUSH1 0xA0 SHL SUB NOT AND CALLER OR SWAP1 SSTORE PUSH2 0x138F DUP1 PUSH2 0x3C PUSH1 0x0 CODECOPY PUSH1 0x0 RETURN INVALID PUSH1 0x80 PUSH1 0x40 MSTORE PUSH1 0x4 CALLDATASIZE LT PUSH2 0x86 JUMPI PUSH1 0x0 CALLDATALOAD PUSH1 0xE0 SHR DUP1 PUSH4 0x93423E9C GT PUSH2 0x59 JUMPI DUP1 PUSH4 0x93423E9C EQ PUSH2 0x109 JUMPI DUP1 PUSH4 0xB91D53C6 EQ PUSH2 0x129 JUMPI DUP1 PUSH4 0xC6427474 EQ PUSH2 0x13E JUMPI DUP1 PUSH4 0xD0E30DB0 EQ PUSH2 0x151 JUMPI DUP1 PUSH4 0xDA76D5CD EQ PUSH2 0x159 JUMPI PUSH1 0x0 DUP1 REVERT JUMPDEST DUP1 PUSH4 0x4311DE8F EQ PUSH2 0x8B JUMPI DUP1 PUSH4 0x597C1B23 EQ PUSH2 0xA2 JUMPI DUP1 PUSH4 0x8ED8249C EQ PUSH2 0xC9 JUMPI DUP1 PUSH4 0x91691873 EQ PUSH2 0xE9 JUMPI JUMPDEST PUSH1 0x0 DUP1 REVERT JUMPDEST CALLVALUE DUP1 ISZERO PUSH2 0x97 JUMPI PUSH1 0x0 DUP1 REVERT JUMPDEST POP PUSH2 0xA0 PUSH2 0x179 JUMP JUMPDEST STOP JUMPDEST CALLVALUE DUP1 ISZERO PUSH2 0xAE JUMPI PUSH1 0x0 DUP1 REVERT JUMPDEST POP PUSH2 0xB7 PUSH2 0x28A JUMP JUMPDEST PUSH1 0x40 MLOAD SWAP1 DUP2 MSTORE PUSH1 0x20 ADD PUSH1 0x40 MLOAD DUP1 SWAP2 SUB SWAP1 RETURN JUMPDEST CALLVALUE DUP1 ISZERO PUSH2 0xD5 JUMPI PUSH1 0x0 DUP1 REVERT JUMPDEST POP PUSH2 0xA0 PUSH2 0xE4 CALLDATASIZE PUSH1 0x4 PUSH2 0x1000 JUMP JUMPDEST PUSH2 0x434 JUMP JUMPDEST CALLVALUE DUP1 ISZERO PUSH2 0xF5 JUMPI PUSH1 0x0 DUP1 REVERT JUMPDEST POP PUSH2 0xA0 PUSH2 0x104 CALLDATASIZE PUSH1 0x4 PUSH2 0x1031 JUMP JUMPDEST PUSH2 0x53C JUMP JUMPDEST CALLVALUE DUP1 ISZERO PUSH2 0x115 JUMPI PUSH1 0x0 DUP1 REVERT JUMPDEST POP PUSH2 0xB7 PUSH2 0x124 CALLDATASIZE PUSH1 0x4 PUSH2 0x105D JUMP JUMPDEST PUSH2 0x7D7 JUMP JUMPDEST CALLVALUE DUP1 ISZERO PUSH2 0x135 JUMPI PUSH1 0x0 DUP1 REVERT JUMPDEST POP PUSH2 0xA0 PUSH2 0x863 JUMP JUMPDEST PUSH2 0xA0 PUSH2 0x14C CALLDATASIZE PUSH1 0x4 PUSH2 0x1097 JUMP JUMPDEST PUSH2 0x9FD JUMP JUMPDEST PUSH2 0xA0 PUSH2 0xD4D JUMP JUMPDEST CALLVALUE DUP1 ISZERO PUSH2 0x165 JUMPI PUSH1 0x0 DUP1 REVERT JUMPDEST POP PUSH2 0xA0 PUSH2 0x174 CALLDATASIZE PUSH1 0x4 PUSH2 0x1000 JUMP JUMPDEST PUSH2 0xE44 JUMP JUMPDEST PUSH1 0x4 SLOAD PUSH1 0x1 PUSH1 0x1 PUSH1 0xA0 SHL SUB AND CALLER EQ PUSH2 0x1AC JUMPI PUSH1 0x40 MLOAD PUSH3 0x461BCD PUSH1 0xE5 SHL DUP2 MSTORE PUSH1 0x4 ADD PUSH2 0x1A3 SWAP1 PUSH2 0x1164 JUMP JUMPDEST PUSH1 0x40 MLOAD DUP1 SWAP2 SUB SWAP1 REVERT JUMPDEST SELFBALANCE PUSH1 0x0 PUSH2 0x1B7 PUSH2 0x28A JUMP JUMPDEST SWAP1 POP PUSH1 0x0 PUSH2 0x1C5 DUP3 DUP5 PUSH2 0x11BB JUMP JUMPDEST SWAP1 POP PUSH1 0x0 DUP2 GT PUSH2 0x217 JUMPI PUSH1 0x40 MLOAD PUSH3 0x461BCD PUSH1 0xE5 SHL DUP2 MSTORE PUSH1 0x20 PUSH1 0x4 DUP3 ADD DUP2 SWAP1 MSTORE PUSH1 0x24 DUP3 ADD MSTORE PUSH32 0x4E6F2072656D61696E696E672062616C616E636520746F207769746864726177 PUSH1 0x44 DUP3 ADD MSTORE PUSH1 0x64 ADD PUSH2 0x1A3 JUMP JUMPDEST PUSH1 0x4 SLOAD PUSH1 0x40 MLOAD PUSH1 0x1 PUSH1 0x1 PUSH1 0xA0 SHL SUB SWAP1 SWAP2 AND SWAP1 DUP3 ISZERO PUSH2 0x8FC MUL SWAP1 DUP4 SWAP1 PUSH1 0x0 DUP2 DUP2 DUP2 DUP6 DUP9 DUP9 CALL SWAP4 POP POP POP POP ISZERO DUP1 ISZERO PUSH2 0x251 JUMPI RETURNDATASIZE PUSH1 0x0 DUP1 RETURNDATACOPY RETURNDATASIZE PUSH1 0x0 REVERT JUMPDEST POP PUSH1 0x40 MLOAD DUP2 DUP2 MSTORE PUSH32 0xA20809E697380EAEA0FD13BF4D14B00E2EF29559EF361501189D3BE2E9B0EC85 SWAP1 PUSH1 0x20 ADD PUSH1 0x40 MLOAD DUP1 SWAP2 SUB SWAP1 LOG1 POP POP POP JUMP JUMPDEST PUSH1 0x0 DUP1 DUP1 JUMPDEST PUSH1 0x40 MLOAD PUSH4 0x6F59EC4B PUSH1 0xE1 SHL DUP2 MSTORE PUSH1 0x0 PUSH1 0x4 DUP3 ADD MSTORE PUSH20 0x0 SWAP1 PUSH4 0xDEB3D896 SWAP1 PUSH1 0x24 ADD PUSH1 0x20 PUSH1 0x40 MLOAD DUP1 DUP4 SUB DUP2 DUP7 GAS DELEGATECALL ISZERO DUP1 ISZERO PUSH2 0x2DF JUMPI RETURNDATASIZE PUSH1 0x0 DUP1 RETURNDATACOPY RETURNDATASIZE PUSH1 0x0 REVERT JUMPDEST POP POP POP POP PUSH1 0x40 MLOAD RETURNDATASIZE PUSH1 0x1F NOT PUSH1 0x1F DUP3 ADD AND DUP3 ADD DUP1 PUSH1 0x40 MSTORE POP DUP2 ADD SWAP1 PUSH2 0x303 SWAP2 SWAP1 PUSH2 0x11CE JUMP JUMPDEST DUP2 LT ISZERO PUSH2 0x42E JUMPI PUSH1 0x40 MLOAD PUSH4 0x68D54F3F PUSH1 0xE1 SHL DUP2 MSTORE PUSH1 0x0 PUSH1 0x4 DUP3 ADD DUP2 SWAP1 MSTORE PUSH1 0x24 DUP3 ADD DUP4 SWAP1 MSTORE SWAP1 PUSH20 0x0 SWAP1 PUSH4 0xD1AA9E7E SWAP1 PUSH1 0x44 ADD PUSH1 0x20 PUSH1 0x40 MLOAD DUP1 DUP4 SUB DUP2 DUP7 GAS DELEGATECALL ISZERO DUP1 ISZERO PUSH2 0x364 JUMPI RETURNDATASIZE PUSH1 0x0 DUP1 RETURNDATACOPY RETURNDATASIZE PUSH1 0x0 REVERT JUMPDEST POP POP POP POP PUSH1 0x40 MLOAD RETURNDATASIZE PUSH1 0x1F NOT PUSH1 0x1F DUP3 ADD AND DUP3 ADD DUP1 PUSH1 0x40 MSTORE POP DUP2 ADD SWAP1 PUSH2 0x388 SWAP2 SWAP1 PUSH2 0x11E7 JUMP JUMPDEST PUSH1 0x40 MLOAD PUSH4 0x732A2CCF PUSH1 0xE0 SHL DUP2 MSTORE PUSH1 0x0 PUSH1 0x4 DUP3 ADD MSTORE PUSH1 0x1 PUSH1 0x1 PUSH1 0xA0 SHL SUB DUP3 AND PUSH1 0x24 DUP3 ADD MSTORE SWAP1 SWAP2 POP PUSH20 0x0 SWAP1 PUSH4 0x732A2CCF SWAP1 PUSH1 0x44 ADD PUSH1 0x20 PUSH1 0x40 MLOAD DUP1 DUP4 SUB DUP2 DUP7 GAS DELEGATECALL ISZERO DUP1 ISZERO PUSH2 0x3EA JUMPI RETURNDATASIZE PUSH1 0x0 DUP1 RETURNDATACOPY RETURNDATASIZE PUSH1 0x0 REVERT JUMPDEST POP POP POP POP PUSH1 0x40 MLOAD RETURNDATASIZE PUSH1 0x1F NOT PUSH1 0x1F DUP3 ADD AND DUP3 ADD DUP1 PUSH1 0x40 MSTORE POP DUP2 ADD SWAP1 PUSH2 0x40E SWAP2 SWAP1 PUSH2 0x11CE JUMP JUMPDEST PUSH2 0x418 SWAP1 DUP5 PUSH2 0x1204 JUMP JUMPDEST SWAP3 POP POP DUP1 DUP1 PUSH2 0x426 SWAP1 PUSH2 0x1217 JUMP JUMPDEST SWAP2 POP POP PUSH2 0x28F JUMP JUMPDEST POP SWAP2 SWAP1 POP JUMP JUMPDEST PUSH1 0x4 SLOAD PUSH1 0x1 PUSH1 0x1 PUSH1 0xA0 SHL SUB AND CALLER EQ PUSH2 0x45E JUMPI PUSH1 0x40 MLOAD PUSH3 0x461BCD PUSH1 0xE5 SHL DUP2 MSTORE PUSH1 0x4 ADD PUSH2 0x1A3 SWAP1 PUSH2 0x1164 JUMP JUMPDEST SELFBALANCE PUSH1 0x0 PUSH2 0x469 PUSH2 0x28A JUMP JUMPDEST SWAP1 POP PUSH1 0x0 PUSH2 0x477 DUP3 DUP5 PUSH2 0x11BB JUMP JUMPDEST SWAP1 POP DUP1 DUP5 LT PUSH2 0x4C8 JUMPI PUSH1 0x40 MLOAD PUSH3 0x461BCD PUSH1 0xE5 SHL DUP2 MSTORE PUSH1 0x20 PUSH1 0x4 DUP3 ADD MSTORE PUSH1 0x1C PUSH1 0x24 DUP3 ADD MSTORE PUSH32 0x4E6F7420656E6F7567682066756E647320746F20776974686472617700000000 PUSH1 0x44 DUP3 ADD MSTORE PUSH1 0x64 ADD PUSH2 0x1A3 JUMP JUMPDEST PUSH1 0x4 SLOAD PUSH1 0x40 MLOAD PUSH1 0x1 PUSH1 0x1 PUSH1 0xA0 SHL SUB SWAP1 SWAP2 AND SWAP1 DUP6 ISZERO PUSH2 0x8FC MUL SWAP1 DUP7 SWAP1 PUSH1 0x0 DUP2 DUP2 DUP2 DUP6 DUP9 DUP9 CALL SWAP4 POP POP POP POP ISZERO DUP1 ISZERO PUSH2 0x502 JUMPI RETURNDATASIZE PUSH1 0x0 DUP1 RETURNDATACOPY RETURNDATASIZE PUSH1 0x0 REVERT JUMPDEST POP PUSH1 0x40 MLOAD DUP5 DUP2 MSTORE PUSH32 0xA20809E697380EAEA0FD13BF4D14B00E2EF29559EF361501189D3BE2E9B0EC85 SWAP1 PUSH1 0x20 ADD PUSH1 0x40 MLOAD DUP1 SWAP2 SUB SWAP1 LOG1 POP POP POP POP JUMP JUMPDEST PUSH1 0x0 DUP2 GT PUSH2 0x57D JUMPI PUSH1 0x40 MLOAD PUSH3 0x461BCD PUSH1 0xE5 SHL DUP2 MSTORE PUSH1 0x20 PUSH1 0x4 DUP3 ADD MSTORE PUSH1 0xE PUSH1 0x24 DUP3 ADD MSTORE PUSH14 0x125B9D985B1A5908185B5BDD5B9D PUSH1 0x92 SHL PUSH1 0x44 DUP3 ADD MSTORE PUSH1 0x64 ADD PUSH2 0x1A3 JUMP JUMPDEST PUSH1 0x40 MLOAD PUSH4 0x732A2CCF PUSH1 0xE0 SHL DUP2 MSTORE PUSH1 0x0 PUSH1 0x4 DUP3 ADD DUP2 SWAP1 MSTORE CALLER PUSH1 0x24 DUP4 ADD MSTORE SWAP1 PUSH20 0x0 SWAP1 PUSH4 0x732A2CCF SWAP1 PUSH1 0x44 ADD PUSH1 0x20 PUSH1 0x40 MLOAD DUP1 DUP4 SUB DUP2 DUP7 GAS DELEGATECALL ISZERO DUP1 ISZERO PUSH2 0x5D6 JUMPI RETURNDATASIZE PUSH1 0x0 DUP1 RETURNDATACOPY RETURNDATASIZE PUSH1 0x0 REVERT JUMPDEST POP POP POP POP PUSH1 0x40 MLOAD RETURNDATASIZE PUSH1 0x1F NOT PUSH1 0x1F DUP3 ADD AND DUP3 ADD DUP1 PUSH1 0x40 MSTORE POP DUP2 ADD SWAP1 PUSH2 0x5FA SWAP2 SWAP1 PUSH2 0x11CE JUMP JUMPDEST PUSH1 0x40 MLOAD PUSH4 0x732A2CCF PUSH1 0xE0 SHL DUP2 MSTORE PUSH1 0x0 PUSH1 0x4 DUP3 ADD DUP2 SWAP1 MSTORE PUSH1 0x1 PUSH1 0x1 PUSH1 0xA0 SHL SUB DUP7 AND PUSH1 0x24 DUP4 ADD MSTORE SWAP2 SWAP3 POP PUSH20 0x0 SWAP1 PUSH4 0x732A2CCF SWAP1 PUSH1 0x44 ADD PUSH1 0x20 PUSH1 0x40 MLOAD DUP1 DUP4 SUB DUP2 DUP7 GAS DELEGATECALL ISZERO DUP1 ISZERO PUSH2 0x65E JUMPI RETURNDATASIZE PUSH1 0x0 DUP1 RETURNDATACOPY RETURNDATASIZE PUSH1 0x0 REVERT JUMPDEST POP POP POP POP PUSH1 0x40 MLOAD RETURNDATASIZE PUSH1 0x1F NOT PUSH1 0x1F DUP3 ADD AND DUP3 ADD DUP1 PUSH1 0x40 MSTORE POP DUP2 ADD SWAP1 PUSH2 0x682 SWAP2 SWAP1 PUSH2 0x11CE JUMP JUMPDEST SWAP1 POP DUP3 DUP3 LT ISZERO PUSH2 0x6A4 JUMPI PUSH1 0x40 MLOAD PUSH3 0x461BCD PUSH1 0xE5 SHL DUP2 MSTORE PUSH1 0x4 ADD PUSH2 0x1A3 SWAP1 PUSH2 0x1230 JUMP JUMPDEST PUSH20 0x0 PUSH4 0xBC2B405C PUSH1 0x0 CALLER PUSH2 0x6CB DUP8 DUP8 PUSH2 0x11BB JUMP JUMPDEST PUSH1 0x40 MLOAD DUP5 PUSH4 0xFFFFFFFF AND PUSH1 0xE0 SHL DUP2 MSTORE PUSH1 0x4 ADD PUSH2 0x6E9 SWAP4 SWAP3 SWAP2 SWAP1 PUSH2 0x125E JUMP JUMPDEST PUSH1 0x0 PUSH1 0x40 MLOAD DUP1 DUP4 SUB DUP2 DUP7 DUP1 EXTCODESIZE ISZERO DUP1 ISZERO PUSH2 0x701 JUMPI PUSH1 0x0 DUP1 REVERT JUMPDEST POP GAS DELEGATECALL ISZERO DUP1 ISZERO PUSH2 0x715 JUMPI RETURNDATASIZE PUSH1 0x0 DUP1 RETURNDATACOPY RETURNDATASIZE PUSH1 0x0 REVERT JUMPDEST POP PUSH20 0x0 SWAP3 POP PUSH4 0xBC2B405C SWAP2 POP PUSH1 0x0 SWAP1 POP DUP7 PUSH2 0x743 DUP8 DUP7 PUSH2 0x1204 JUMP JUMPDEST PUSH1 0x40 MLOAD DUP5 PUSH4 0xFFFFFFFF AND PUSH1 0xE0 SHL DUP2 MSTORE PUSH1 0x4 ADD PUSH2 0x761 SWAP4 SWAP3 SWAP2 SWAP1 PUSH2 0x125E JUMP JUMPDEST PUSH1 0x0 PUSH1 0x40 MLOAD DUP1 DUP4 SUB DUP2 DUP7 DUP1 EXTCODESIZE ISZERO DUP1 ISZERO PUSH2 0x779 JUMPI PUSH1 0x0 DUP1 REVERT JUMPDEST POP GAS DELEGATECALL ISZERO DUP1 ISZERO PUSH2 0x78D JUMPI RETURNDATASIZE PUSH1 0x0 DUP1 RETURNDATACOPY RETURNDATASIZE PUSH1 0x0 REVERT JUMPDEST POP POP PUSH1 0x40 MLOAD DUP6 DUP2 MSTORE PUSH1 0x1 PUSH1 0x1 PUSH1 0xA0 SHL SUB DUP8 AND SWAP3 POP CALLER SWAP2 POP PUSH32 0xD69BE2AD0DF9902412768A47559F760396739FE2CCB5C9EBC1E575BDCE44C69A SWAP1 PUSH1 0x20 ADD PUSH1 0x40 MLOAD DUP1 SWAP2 SUB SWAP1 LOG3 POP POP POP POP JUMP JUMPDEST PUSH1 0x40 MLOAD PUSH4 0x732A2CCF PUSH1 0xE0 SHL DUP2 MSTORE PUSH1 0x0 PUSH1 0x4 DUP3 ADD DUP2 SWAP1 MSTORE PUSH1 0x1 PUSH1 0x1 PUSH1 0xA0 SHL SUB DUP4 AND PUSH1 0x24 DUP4 ADD MSTORE SWAP1 PUSH20 0x0 SWAP1 PUSH4 0x732A2CCF SWAP1 PUSH1 0x44 ADD PUSH1 0x20 PUSH1 0x40 MLOAD DUP1 DUP4 SUB DUP2 DUP7 GAS DELEGATECALL ISZERO DUP1 ISZERO PUSH2 0x839 JUMPI RETURNDATASIZE PUSH1 0x0 DUP1 RETURNDATACOPY RETURNDATASIZE PUSH1 0x0 REVERT JUMPDEST POP POP POP POP PUSH1 0x40 MLOAD RETURNDATASIZE PUSH1 0x1F NOT PUSH1 0x1F DUP3 ADD AND DUP3 ADD DUP1 PUSH1 0x40 MSTORE POP DUP2 ADD SWAP1 PUSH2 0x85D SWAP2 SWAP1 PUSH2 0x11CE JUMP JUMPDEST SWAP3 SWAP2 POP POP JUMP JUMPDEST PUSH1 0x40 MLOAD PUSH4 0x732A2CCF PUSH1 0xE0 SHL DUP2 MSTORE PUSH1 0x0 PUSH1 0x4 DUP3 ADD DUP2 SWAP1 MSTORE CALLER PUSH1 0x24 DUP4 ADD MSTORE SWAP1 PUSH20 0x0 SWAP1 PUSH4 0x732A2CCF SWAP1 PUSH1 0x44 ADD PUSH1 0x20 PUSH1 0x40 MLOAD DUP1 DUP4 SUB DUP2 DUP7 GAS DELEGATECALL ISZERO DUP1 ISZERO PUSH2 0x8BC JUMPI RETURNDATASIZE PUSH1 0x0 DUP1 RETURNDATACOPY RETURNDATASIZE PUSH1 0x0 REVERT JUMPDEST POP POP POP POP PUSH1 0x40 MLOAD RETURNDATASIZE PUSH1 0x1F NOT PUSH1 0x1F DUP3 ADD AND DUP3 ADD DUP1 PUSH1 0x40 MSTORE POP DUP2 ADD SWAP1 PUSH2 0x8E0 SWAP2 SWAP1 PUSH2 0x11CE JUMP JUMPDEST SWAP1 POP PUSH1 0x0 DUP2 GT PUSH2 0x92B JUMPI PUSH1 0x40 MLOAD PUSH3 0x461BCD PUSH1 0xE5 SHL DUP2 MSTORE PUSH1 0x20 PUSH1 0x4 DUP3 ADD MSTORE PUSH1 0x16 PUSH1 0x24 DUP3 ADD MSTORE PUSH22 0x4E6F2062616C616E636520746F207769746864726177 PUSH1 0x50 SHL PUSH1 0x44 DUP3 ADD MSTORE PUSH1 0x64 ADD PUSH2 0x1A3 JUMP JUMPDEST PUSH1 0x40 MLOAD PUSH4 0x2F0AD017 PUSH1 0xE2 SHL DUP2 MSTORE PUSH20 0x0 SWAP1 PUSH4 0xBC2B405C SWAP1 PUSH2 0x967 SWAP1 PUSH1 0x0 SWAP1 CALLER SWAP1 DUP3 SWAP1 PUSH1 0x4 ADD PUSH2 0x125E JUMP JUMPDEST PUSH1 0x0 PUSH1 0x40 MLOAD DUP1 DUP4 SUB DUP2 DUP7 DUP1 EXTCODESIZE ISZERO DUP1 ISZERO PUSH2 0x97F JUMPI PUSH1 0x0 DUP1 REVERT JUMPDEST POP GAS DELEGATECALL ISZERO DUP1 ISZERO PUSH2 0x993 JUMPI RETURNDATASIZE PUSH1 0x0 DUP1 RETURNDATACOPY RETURNDATASIZE PUSH1 0x0 REVERT JUMPDEST POP POP PUSH1 0x40 MLOAD CALLER SWAP3 POP DUP4 ISZERO PUSH2 0x8FC MUL SWAP2 POP DUP4 SWAP1 PUSH1 0x0 DUP2 DUP2 DUP2 DUP6 DUP9 DUP9 CALL SWAP4 POP POP POP POP ISZERO DUP1 ISZERO PUSH2 0x9C4 JUMPI RETURNDATASIZE PUSH1 0x0 DUP1 RETURNDATACOPY RETURNDATASIZE PUSH1 0x0 REVERT JUMPDEST POP PUSH1 0x40 MLOAD DUP2 DUP2 MSTORE CALLER SWAP1 PUSH32 0x884EDAD9CE6FA2440D8A54CC123490EB96D2768479D49FF9C7366125A9424364 SWAP1 PUSH1 0x20 ADD PUSH1 0x40 MLOAD DUP1 SWAP2 SUB SWAP1 LOG2 POP JUMP JUMPDEST PUSH1 0x40 MLOAD PUSH4 0x732A2CCF PUSH1 0xE0 SHL DUP2 MSTORE PUSH1 0x0 PUSH1 0x4 DUP3 ADD DUP2 SWAP1 MSTORE CALLER PUSH1 0x24 DUP4 ADD MSTORE CALLVALUE SWAP2 PUSH20 0x0 SWAP1 PUSH4 0x732A2CCF SWAP1 PUSH1 0x44 ADD PUSH1 0x20 PUSH1 0x40 MLOAD DUP1 DUP4 SUB DUP2 DUP7 GAS DELEGATECALL ISZERO DUP1 ISZERO PUSH2 0xA57 JUMPI RETURNDATASIZE PUSH1 0x0 DUP1 RETURNDATACOPY RETURNDATASIZE PUSH1 0x0 REVERT JUMPDEST POP POP POP POP PUSH1 0x40 MLOAD RETURNDATASIZE PUSH1 0x1F NOT PUSH1 0x1F DUP3 ADD AND DUP3 ADD DUP1 PUSH1 0x40 MSTORE POP DUP2 ADD SWAP1 PUSH2 0xA7B SWAP2 SWAP1 PUSH2 0x11CE JUMP JUMPDEST SWAP1 POP PUSH1 0x5 SLOAD DUP3 GT ISZERO PUSH2 0xB16 JUMPI PUSH1 0x5 SLOAD PUSH2 0xA94 SWAP1 DUP4 PUSH2 0x11BB JUMP JUMPDEST SWAP2 POP PUSH1 0x0 PUSH20 0x0 PUSH4 0xBC2B405C SWAP1 SWAP2 CALLER PUSH1 0x5 SLOAD DUP6 PUSH2 0xAC3 SWAP2 SWAP1 PUSH2 0x1204 JUMP JUMPDEST PUSH1 0x40 MLOAD DUP5 PUSH4 0xFFFFFFFF AND PUSH1 0xE0 SHL DUP2 MSTORE PUSH1 0x4 ADD PUSH2 0xAE1 SWAP4 SWAP3 SWAP2 SWAP1 PUSH2 0x125E JUMP JUMPDEST PUSH1 0x0 PUSH1 0x40 MLOAD DUP1 DUP4 SUB DUP2 DUP7 DUP1 EXTCODESIZE ISZERO DUP1 ISZERO PUSH2 0xAF9 JUMPI PUSH1 0x0 DUP1 REVERT JUMPDEST POP GAS DELEGATECALL ISZERO DUP1 ISZERO PUSH2 0xB0D JUMPI RETURNDATASIZE PUSH1 0x0 DUP1 RETURNDATACOPY RETURNDATASIZE PUSH1 0x0 REVERT JUMPDEST POP POP POP POP PUSH2 0xBB4 JUMP JUMPDEST PUSH1 0x5 SLOAD DUP2 LT ISZERO PUSH2 0xB38 JUMPI PUSH1 0x40 MLOAD PUSH3 0x461BCD PUSH1 0xE5 SHL DUP2 MSTORE PUSH1 0x4 ADD PUSH2 0x1A3 SWAP1 PUSH2 0x1230 JUMP JUMPDEST PUSH1 0x0 PUSH20 0x0 PUSH4 0xBC2B405C SWAP1 SWAP2 CALLER PUSH1 0x5 SLOAD DUP6 PUSH2 0xB65 SWAP2 SWAP1 PUSH2 0x11BB JUMP JUMPDEST PUSH1 0x40 MLOAD DUP5 PUSH4 0xFFFFFFFF AND PUSH1 0xE0 SHL DUP2 MSTORE PUSH1 0x4 ADD PUSH2 0xB83 SWAP4 SWAP3 SWAP2 SWAP1 PUSH2 0x125E JUMP JUMPDEST PUSH1 0x0 PUSH1 0x40 MLOAD DUP1 DUP4 SUB DUP2 DUP7 DUP1 EXTCODESIZE ISZERO DUP1 ISZERO PUSH2 0xB9B JUMPI PUSH1 0x0 DUP1 REVERT JUMPDEST POP GAS DELEGATECALL ISZERO DUP1 ISZERO PUSH2 0xBAF JUMPI RETURNDATASIZE PUSH1 0x0 DUP1 RETURNDATACOPY RETURNDATASIZE PUSH1 0x0 REVERT JUMPDEST POP POP POP POP JUMPDEST PUSH32 0xE33EB0896A1B189F05B8C6D69CE71E4DB20A0F91FC82AE4D6384AD76BA6E5580 DUP4 PUSH1 0x40 MLOAD PUSH2 0xBE3 SWAP2 SWAP1 PUSH2 0x12CD JUMP JUMPDEST PUSH1 0x40 MLOAD DUP1 SWAP2 SUB SWAP1 LOG1 PUSH1 0x0 DUP1 DUP7 PUSH1 0x1 PUSH1 0x1 PUSH1 0xA0 SHL SUB AND DUP7 DUP7 PUSH1 0x40 MLOAD PUSH2 0xC07 SWAP2 SWAP1 PUSH2 0x12E0 JUMP JUMPDEST PUSH1 0x0 PUSH1 0x40 MLOAD DUP1 DUP4 SUB DUP2 DUP6 DUP8 GAS CALL SWAP3 POP POP POP RETURNDATASIZE DUP1 PUSH1 0x0 DUP2 EQ PUSH2 0xC44 JUMPI PUSH1 0x40 MLOAD SWAP2 POP PUSH1 0x1F NOT PUSH1 0x3F RETURNDATASIZE ADD AND DUP3 ADD PUSH1 0x40 MSTORE RETURNDATASIZE DUP3 MSTORE RETURNDATASIZE PUSH1 0x0 PUSH1 0x20 DUP5 ADD RETURNDATACOPY PUSH2 0xC49 JUMP JUMPDEST PUSH1 0x60 SWAP2 POP JUMPDEST POP SWAP2 POP SWAP2 POP DUP2 PUSH2 0xCF7 JUMPI PUSH1 0x40 DUP1 MLOAD DUP1 DUP3 ADD SWAP1 SWAP2 MSTORE PUSH1 0x10 DUP2 MSTORE PUSH16 0x2737903932BB32B93A103932B0B9B7B7 PUSH1 0x81 SHL PUSH1 0x20 DUP3 ADD MSTORE DUP2 MLOAD PUSH1 0x44 GT PUSH2 0xC89 JUMPI POP PUSH1 0x4 DUP2 ADD JUMPDEST PUSH32 0x3C4B96F0117EA792D5C26CF00A23B93D220325EF34E352D05103B1971C8CB54C DUP2 PUSH1 0x40 MLOAD PUSH2 0xCB8 SWAP2 SWAP1 PUSH2 0x12CD JUMP JUMPDEST PUSH1 0x40 MLOAD DUP1 SWAP2 SUB SWAP1 LOG1 DUP1 PUSH1 0x40 MLOAD PUSH1 0x20 ADD PUSH2 0xCD1 SWAP2 SWAP1 PUSH2 0x12FC JUMP JUMPDEST PUSH1 0x40 DUP1 MLOAD PUSH1 0x1F NOT DUP2 DUP5 SUB ADD DUP2 MSTORE SWAP1 DUP3 SWAP1 MSTORE PUSH3 0x461BCD PUSH1 0xE5 SHL DUP3 MSTORE PUSH2 0x1A3 SWAP2 PUSH1 0x4 ADD PUSH2 0x12CD JUMP JUMPDEST DUP7 PUSH1 0x1 PUSH1 0x1 PUSH1 0xA0 SHL SUB AND CALLER PUSH1 0x1 PUSH1 0x1 PUSH1 0xA0 SHL SUB AND PUSH32 0xAB7BCCECDDF9B5629E0D45E9FCC3C9D353AE417DDB20DD83EB7C9FE71725DE47 DUP9 DUP9 PUSH1 0x40 MLOAD PUSH2 0xD3C SWAP3 SWAP2 SWAP1 PUSH2 0x1338 JUMP JUMPDEST PUSH1 0x40 MLOAD DUP1 SWAP2 SUB SWAP1 LOG3 POP POP POP POP POP POP POP JUMP JUMPDEST PUSH1 0x40 MLOAD PUSH4 0x732A2CCF PUSH1 0xE0 SHL DUP2 MSTORE PUSH1 0x0 PUSH1 0x4 DUP3 ADD DUP2 SWAP1 MSTORE CALLER PUSH1 0x24 DUP4 ADD MSTORE SWAP1 PUSH20 0x0 SWAP1 PUSH4 0x732A2CCF SWAP1 PUSH1 0x44 ADD PUSH1 0x20 PUSH1 0x40 MLOAD DUP1 DUP4 SUB DUP2 DUP7 GAS DELEGATECALL ISZERO DUP1 ISZERO PUSH2 0xDA6 JUMPI RETURNDATASIZE PUSH1 0x0 DUP1 RETURNDATACOPY RETURNDATASIZE PUSH1 0x0 REVERT JUMPDEST POP POP POP POP PUSH1 0x40 MLOAD RETURNDATASIZE PUSH1 0x1F NOT PUSH1 0x1F DUP3 ADD AND DUP3 ADD DUP1 PUSH1 0x40 MSTORE POP DUP2 ADD SWAP1 PUSH2 0xDCA SWAP2 SWAP1 PUSH2 0x11CE JUMP JUMPDEST SWAP1 POP PUSH20 0x0 PUSH4 0xBC2B405C PUSH1 0x0 CALLER PUSH2 0xDF3 CALLVALUE DUP7 PUSH2 0x1204 JUMP JUMPDEST PUSH1 0x40 MLOAD DUP5 PUSH4 0xFFFFFFFF AND PUSH1 0xE0 SHL DUP2 MSTORE PUSH1 0x4 ADD PUSH2 0xE11 SWAP4 SWAP3 SWAP2 SWAP1 PUSH2 0x125E JUMP JUMPDEST PUSH1 0x0 PUSH1 0x40 MLOAD DUP1 DUP4 SUB DUP2 DUP7 DUP1 EXTCODESIZE ISZERO DUP1 ISZERO PUSH2 0xE29 JUMPI PUSH1 0x0 DUP1 REVERT JUMPDEST POP GAS DELEGATECALL ISZERO DUP1 ISZERO PUSH2 0xE3D JUMPI RETURNDATASIZE PUSH1 0x0 DUP1 RETURNDATACOPY RETURNDATASIZE PUSH1 0x0 REVERT JUMPDEST POP POP POP POP POP JUMP JUMPDEST PUSH1 0x0 DUP2 GT PUSH2 0xE85 JUMPI PUSH1 0x40 MLOAD PUSH3 0x461BCD PUSH1 0xE5 SHL DUP2 MSTORE PUSH1 0x20 PUSH1 0x4 DUP3 ADD MSTORE PUSH1 0xE PUSH1 0x24 DUP3 ADD MSTORE PUSH14 0x125B9D985B1A5908185B5BDD5B9D PUSH1 0x92 SHL PUSH1 0x44 DUP3 ADD MSTORE PUSH1 0x64 ADD PUSH2 0x1A3 JUMP JUMPDEST PUSH1 0x40 MLOAD PUSH4 0x732A2CCF PUSH1 0xE0 SHL DUP2 MSTORE PUSH1 0x0 PUSH1 0x4 DUP3 ADD DUP2 SWAP1 MSTORE CALLER PUSH1 0x24 DUP4 ADD MSTORE SWAP1 PUSH20 0x0 SWAP1 PUSH4 0x732A2CCF SWAP1 PUSH1 0x44 ADD PUSH1 0x20 PUSH1 0x40 MLOAD DUP1 DUP4 SUB DUP2 DUP7 GAS DELEGATECALL ISZERO DUP1 ISZERO PUSH2 0xEDE JUMPI RETURNDATASIZE PUSH1 0x0 DUP1 RETURNDATACOPY RETURNDATASIZE PUSH1 0x0 REVERT JUMPDEST POP POP POP POP PUSH1 0x40 MLOAD RETURNDATASIZE PUSH1 0x1F NOT PUSH1 0x1F DUP3 ADD AND DUP3 ADD DUP1 PUSH1 0x40 MSTORE POP DUP2 ADD SWAP1 PUSH2 0xF02 SWAP2 SWAP1 PUSH2 0x11CE JUMP JUMPDEST SWAP1 POP DUP2 DUP2 LT ISZERO PUSH2 0xF24 JUMPI PUSH1 0x40 MLOAD PUSH3 0x461BCD PUSH1 0xE5 SHL DUP2 MSTORE PUSH1 0x4 ADD PUSH2 0x1A3 SWAP1 PUSH2 0x1230 JUMP JUMPDEST PUSH20 0x0 PUSH4 0xBC2B405C PUSH1 0x0 CALLER PUSH2 0xF4B DUP7 DUP7 PUSH2 0x11BB JUMP JUMPDEST PUSH1 0x40 MLOAD DUP5 PUSH4 0xFFFFFFFF AND PUSH1 0xE0 SHL DUP2 MSTORE PUSH1 0x4 ADD PUSH2 0xF69 SWAP4 SWAP3 SWAP2 SWAP1 PUSH2 0x125E JUMP JUMPDEST PUSH1 0x0 PUSH1 0x40 MLOAD DUP1 DUP4 SUB DUP2 DUP7 DUP1 EXTCODESIZE ISZERO DUP1 ISZERO PUSH2 0xF81 JUMPI PUSH1 0x0 DUP1 REVERT JUMPDEST POP GAS DELEGATECALL ISZERO DUP1 ISZERO PUSH2 0xF95 JUMPI RETURNDATASIZE PUSH1 0x0 DUP1 RETURNDATACOPY RETURNDATASIZE PUSH1 0x0 REVERT JUMPDEST POP POP PUSH1 0x40 MLOAD CALLER SWAP3 POP DUP5 ISZERO PUSH2 0x8FC MUL SWAP2 POP DUP5 SWAP1 PUSH1 0x0 DUP2 DUP2 DUP2 DUP6 DUP9 DUP9 CALL SWAP4 POP POP POP POP ISZERO DUP1 ISZERO PUSH2 0xFC6 JUMPI RETURNDATASIZE PUSH1 0x0 DUP1 RETURNDATACOPY RETURNDATASIZE PUSH1 0x0 REVERT JUMPDEST POP PUSH1 0x40 MLOAD DUP3 DUP2 MSTORE CALLER SWAP1 PUSH32 0x884EDAD9CE6FA2440D8A54CC123490EB96D2768479D49FF9C7366125A9424364 SWAP1 PUSH1 0x20 ADD PUSH1 0x40 MLOAD DUP1 SWAP2 SUB SWAP1 LOG2 POP POP JUMP JUMPDEST PUSH1 0x0 PUSH1 0x20 DUP3 DUP5 SUB SLT ISZERO PUSH2 0x1012 JUMPI PUSH1 0x0 DUP1 REVERT JUMPDEST POP CALLDATALOAD SWAP2 SWAP1 POP JUMP JUMPDEST PUSH1 0x1 PUSH1 0x1 PUSH1 0xA0 SHL SUB DUP2 AND DUP2 EQ PUSH2 0x102E JUMPI PUSH1 0x0 DUP1 REVERT JUMPDEST POP JUMP JUMPDEST PUSH1 0x0 DUP1 PUSH1 0x40 DUP4 DUP6 SUB SLT ISZERO PUSH2 0x1044 JUMPI PUSH1 0x0 DUP1 REVERT JUMPDEST DUP3 CALLDATALOAD PUSH2 0x104F DUP2 PUSH2 0x1019 JUMP JUMPDEST SWAP5 PUSH1 0x20 SWAP4 SWAP1 SWAP4 ADD CALLDATALOAD SWAP4 POP POP POP JUMP JUMPDEST PUSH1 0x0 PUSH1 0x20 DUP3 DUP5 SUB SLT ISZERO PUSH2 0x106F JUMPI PUSH1 0x0 DUP1 REVERT JUMPDEST DUP2 CALLDATALOAD PUSH2 0x107A DUP2 PUSH2 0x1019 JUMP JUMPDEST SWAP4 SWAP3 POP POP POP JUMP JUMPDEST PUSH4 0x4E487B71 PUSH1 0xE0 SHL PUSH1 0x0 MSTORE PUSH1 0x41 PUSH1 0x4 MSTORE PUSH1 0x24 PUSH1 0x0 REVERT JUMPDEST PUSH1 0x0 DUP1 PUSH1 0x0 PUSH1 0x60 DUP5 DUP7 SUB SLT ISZERO PUSH2 0x10AC JUMPI PUSH1 0x0 DUP1 REVERT JUMPDEST DUP4 CALLDATALOAD PUSH2 0x10B7 DUP2 PUSH2 0x1019 JUMP JUMPDEST SWAP3 POP PUSH1 0x20 DUP5 ADD CALLDATALOAD SWAP2 POP PUSH1 0x40 DUP5 ADD CALLDATALOAD PUSH8 0xFFFFFFFFFFFFFFFF DUP1 DUP3 GT ISZERO PUSH2 0x10DB JUMPI PUSH1 0x0 DUP1 REVERT JUMPDEST DUP2 DUP7 ADD SWAP2 POP DUP7 PUSH1 0x1F DUP4 ADD SLT PUSH2 0x10EF JUMPI PUSH1 0x0 DUP1 REVERT JUMPDEST DUP2 CALLDATALOAD DUP2 DUP2 GT ISZERO PUSH2 0x1101 JUMPI PUSH2 0x1101 PUSH2 0x1081 JUMP JUMPDEST PUSH1 0x40 MLOAD PUSH1 0x1F DUP3 ADD PUSH1 0x1F NOT SWAP1 DUP2 AND PUSH1 0x3F ADD AND DUP2 ADD SWAP1 DUP4 DUP3 GT DUP2 DUP4 LT OR ISZERO PUSH2 0x1129 JUMPI PUSH2 0x1129 PUSH2 0x1081 JUMP JUMPDEST DUP2 PUSH1 0x40 MSTORE DUP3 DUP2 MSTORE DUP10 PUSH1 0x20 DUP5 DUP8 ADD ADD GT ISZERO PUSH2 0x1142 JUMPI PUSH1 0x0 DUP1 REVERT JUMPDEST DUP3 PUSH1 0x20 DUP7 ADD PUSH1 0x20 DUP4 ADD CALLDATACOPY PUSH1 0x0 PUSH1 0x20 DUP5 DUP4 ADD ADD MSTORE DUP1 SWAP6 POP POP POP POP POP POP SWAP3 POP SWAP3 POP SWAP3 JUMP JUMPDEST PUSH1 0x20 DUP1 DUP3 MSTORE PUSH1 0x21 SWAP1 DUP3 ADD MSTORE PUSH32 0x4F6E6C79206F776E65722063616E2063616C6C20746869732066756E6374696F PUSH1 0x40 DUP3 ADD MSTORE PUSH1 0x37 PUSH1 0xF9 SHL PUSH1 0x60 DUP3 ADD MSTORE PUSH1 0x80 ADD SWAP1 JUMP JUMPDEST PUSH4 0x4E487B71 PUSH1 0xE0 SHL PUSH1 0x0 MSTORE PUSH1 0x11 PUSH1 0x4 MSTORE PUSH1 0x24 PUSH1 0x0 REVERT JUMPDEST DUP2 DUP2 SUB DUP2 DUP2 GT ISZERO PUSH2 0x85D JUMPI PUSH2 0x85D PUSH2 0x11A5 JUMP JUMPDEST PUSH1 0x0 PUSH1 0x20 DUP3 DUP5 SUB SLT ISZERO PUSH2 0x11E0 JUMPI PUSH1 0x0 DUP1 REVERT JUMPDEST POP MLOAD SWAP2 SWAP1 POP JUMP JUMPDEST PUSH1 0x0 PUSH1 0x20 DUP3 DUP5 SUB SLT ISZERO PUSH2 0x11F9 JUMPI PUSH1 0x0 DUP1 REVERT JUMPDEST DUP2 MLOAD PUSH2 0x107A DUP2 PUSH2 0x1019 JUMP JUMPDEST DUP1 DUP3 ADD DUP1 DUP3 GT ISZERO PUSH2 0x85D JUMPI PUSH2 0x85D PUSH2 0x11A5 JUMP JUMPDEST PUSH1 0x0 PUSH1 0x1 DUP3 ADD PUSH2 0x1229 JUMPI PUSH2 0x1229 PUSH2 0x11A5 JUMP JUMPDEST POP PUSH1 0x1 ADD SWAP1 JUMP JUMPDEST PUSH1 0x20 DUP1 DUP3 MSTORE PUSH1 0x14 SWAP1 DUP3 ADD MSTORE PUSH20 0x496E73756666696369656E742062616C616E6365 PUSH1 0x60 SHL PUSH1 0x40 DUP3 ADD MSTORE PUSH1 0x60 ADD SWAP1 JUMP JUMPDEST SWAP3 DUP4 MSTORE PUSH1 0x1 PUSH1 0x1 PUSH1 0xA0 SHL SUB SWAP2 SWAP1 SWAP2 AND PUSH1 0x20 DUP4 ADD MSTORE PUSH1 0x40 DUP3 ADD MSTORE PUSH1 0x60 ADD SWAP1 JUMP JUMPDEST PUSH1 0x0 JUMPDEST DUP4 DUP2 LT ISZERO PUSH2 0x1298 JUMPI DUP2 DUP2 ADD MLOAD DUP4 DUP3 ADD MSTORE PUSH1 0x20 ADD PUSH2 0x1280 JUMP JUMPDEST POP POP PUSH1 0x0 SWAP2 ADD MSTORE JUMP JUMPDEST PUSH1 0x0 DUP2 MLOAD DUP1 DUP5 MSTORE PUSH2 0x12B9 DUP2 PUSH1 0x20 DUP7 ADD PUSH1 0x20 DUP7 ADD PUSH2 0x127D JUMP JUMPDEST PUSH1 0x1F ADD PUSH1 0x1F NOT AND SWAP3 SWAP1 SWAP3 ADD PUSH1 0x20 ADD SWAP3 SWAP2 POP POP JUMP JUMPDEST PUSH1 0x20 DUP2 MSTORE PUSH1 0x0 PUSH2 0x107A PUSH1 0x20 DUP4 ADD DUP5 PUSH2 0x12A1 JUMP JUMPDEST PUSH1 0x0 DUP3 MLOAD PUSH2 0x12F2 DUP2 DUP5 PUSH1 0x20 DUP8 ADD PUSH2 0x127D JUMP JUMPDEST SWAP2 SWAP1 SWAP2 ADD SWAP3 SWAP2 POP POP JUMP JUMPDEST PUSH20 0x2A3930B739B0B1BA34B7B7103330B4B632B21D1 PUSH1 0x65 SHL DUP2 MSTORE PUSH1 0x0 DUP3 MLOAD PUSH2 0x132B DUP2 PUSH1 0x14 DUP6 ADD PUSH1 0x20 DUP8 ADD PUSH2 0x127D JUMP JUMPDEST SWAP2 SWAP1 SWAP2 ADD PUSH1 0x14 ADD SWAP3 SWAP2 POP POP JUMP JUMPDEST DUP3 DUP2 MSTORE PUSH1 0x40 PUSH1 0x20 DUP3 ADD MSTORE PUSH1 0x0 PUSH2 0x1351 PUSH1 0x40 DUP4 ADD DUP5 PUSH2 0x12A1 JUMP JUMPDEST SWAP5 SWAP4 POP POP POP POP JUMP INVALID LOG2 PUSH5 0x6970667358 0x22 SLT KECCAK256 CALLER 0x2E 0x5D 0xBF 0xAC 0x2B 0x23 PUSH31 0xBA13DCBE1E1883FD9CD721756B3948414F4641DB1A9DF69864736F6C634300 ADDMOD SGT STOP CALLER "},"methodIdentifiers":{"deposit()":"d0e30db0","getAccountBalance(address)":"93423e9c","getTotalAccountsBalance()":"597c1b23","ownerWithdraw()":"4311de8f","ownerWithdrawAmount(uint256)":"8ed8249c","submitTransaction(address,uint256,bytes)":"c6427474","transferAccount(address,uint256)":"91691873","withdrawBalance(uint256)":"da76d5cd","withdrawRemainingBalance()":"b91d53c6"}},"storageLayout":{"storage":[{"astId":242,"contract":"contracts/RpcGo.sol:RpcGo","label":"accounts","offset":0,"slot":"0","type":"t_struct(Map)17_storage"},{"astId":244,"contract":"contracts/RpcGo.sol:RpcGo","label":"owner","offset":0,"slot":"4","type":"t_address"},{"astId":247,"contract":"contracts/RpcGo.sol:RpcGo","label":"feeAmount","offset":0,"slot":"5","type":"t_uint256"}],"types":{"t_address":{"encoding":"inplace","label":"address","numberOfBytes":"20"},"t_array(t_address)dyn_storage":{"base":"t_address","encoding":"dynamic_array","label":"address[]","numberOfBytes":"32"},"t_bool":{"encoding":"inplace","label":"bool","numberOfBytes":"1"},"t_mapping(t_address,t_bool)":{"encoding":"mapping","key":"t_address","label":"mapping(address => bool)","numberOfBytes":"32","value":"t_bool"},"t_mapping(t_address,t_uint256)":{"encoding":"mapping","key":"t_address","label":"mapping(address => uint256)","numberOfBytes":"32","value":"t_uint256"},"t_struct(Map)17_storage":{"encoding":"inplace","label":"struct IterableMapping.Map","members":[{"astId":4,"contract":"contracts/RpcGo.sol:RpcGo","label":"keys","offset":0,"slot":"0","type":"t_array(t_address)dyn_storage"},{"astId":8,"contract":"contracts/RpcGo.sol:RpcGo","label":"values","offset":0,"slot":"1","type":"t_mapping(t_address,t_uint256)"},{"astId":12,"contract":"contracts/RpcGo.sol:RpcGo","label":"indexOf","offset":0,"slot":"2","type":"t_mapping(t_address,t_uint256)"},{"astId":16,"contract":"contracts/RpcGo.sol:RpcGo","label":"inserted","offset":0,"slot":"3","type":"t_mapping(t_address,t_bool)"}],"numberOfBytes":"128"},"t_uint256":{"encoding":"inplace","label":"uint256","numberOfBytes":"32"}}}}}}